{
  "contractName": "Watchain",
  "abi": [
    {
      "inputs": [],
      "stateMutability": "nonpayable",
      "type": "constructor"
    },
    {
      "inputs": [],
      "name": "companyName",
      "outputs": [
        {
          "internalType": "string",
          "name": "",
          "type": "string"
        }
      ],
      "stateMutability": "view",
      "type": "function"
    },
    {
      "inputs": [
        {
          "internalType": "uint256",
          "name": "",
          "type": "uint256"
        }
      ],
      "name": "watches",
      "outputs": [
        {
          "internalType": "string",
          "name": "serialNumber",
          "type": "string"
        },
        {
          "internalType": "string",
          "name": "model",
          "type": "string"
        },
        {
          "internalType": "string",
          "name": "collection",
          "type": "string"
        },
        {
          "internalType": "string",
          "name": "dateOfManufacture",
          "type": "string"
        },
        {
          "internalType": "string",
          "name": "authorizedDealer",
          "type": "string"
        },
        {
          "components": [
            {
              "internalType": "string",
              "name": "ownerId",
              "type": "string"
            },
            {
              "internalType": "string",
              "name": "ownerName",
              "type": "string"
            },
            {
              "internalType": "string",
              "name": "transferDate",
              "type": "string"
            },
            {
              "internalType": "string",
              "name": "contactNumber",
              "type": "string"
            },
            {
              "internalType": "string",
              "name": "email",
              "type": "string"
            }
          ],
          "internalType": "struct Watchain.OwnershipRecord",
          "name": "currentOwner",
          "type": "tuple"
        }
      ],
      "stateMutability": "view",
      "type": "function"
    },
    {
      "inputs": [
        {
          "internalType": "string",
          "name": "_serialNumber",
          "type": "string"
        },
        {
          "internalType": "string",
          "name": "_model",
          "type": "string"
        },
        {
          "internalType": "string",
          "name": "_collection",
          "type": "string"
        },
        {
          "internalType": "string",
          "name": "_dateOfManufacture",
          "type": "string"
        },
        {
          "internalType": "string",
          "name": "_authorizedDealer",
          "type": "string"
        },
        {
          "internalType": "string",
          "name": "_initialOwnerId",
          "type": "string"
        },
        {
          "internalType": "string",
          "name": "_initialOwnerName",
          "type": "string"
        },
        {
          "internalType": "string",
          "name": "_initialOwnerContact",
          "type": "string"
        },
        {
          "internalType": "string",
          "name": "_initialOwnerEmail",
          "type": "string"
        },
        {
          "internalType": "string",
          "name": "_purchaseDate",
          "type": "string"
        }
      ],
      "name": "registerWatch",
      "outputs": [
        {
          "internalType": "uint256",
          "name": "",
          "type": "uint256"
        }
      ],
      "stateMutability": "nonpayable",
      "type": "function"
    },
    {
      "inputs": [
        {
          "internalType": "uint256",
          "name": "watchId",
          "type": "uint256"
        },
        {
          "internalType": "string",
          "name": "_newOwnerId",
          "type": "string"
        },
        {
          "internalType": "string",
          "name": "_newOwnerName",
          "type": "string"
        },
        {
          "internalType": "string",
          "name": "_transferDate",
          "type": "string"
        },
        {
          "internalType": "string",
          "name": "_newOwnerContact",
          "type": "string"
        },
        {
          "internalType": "string",
          "name": "_newOwnerEmail",
          "type": "string"
        }
      ],
      "name": "addOwnershipRecord",
      "outputs": [],
      "stateMutability": "nonpayable",
      "type": "function"
    },
    {
      "inputs": [
        {
          "internalType": "uint256",
          "name": "watchId",
          "type": "uint256"
        },
        {
          "internalType": "string",
          "name": "_serviceDate",
          "type": "string"
        },
        {
          "internalType": "string",
          "name": "_details",
          "type": "string"
        },
        {
          "internalType": "string",
          "name": "_replacementParts",
          "type": "string"
        }
      ],
      "name": "addServiceRecord",
      "outputs": [],
      "stateMutability": "nonpayable",
      "type": "function"
    },
    {
      "inputs": [
        {
          "internalType": "uint256",
          "name": "watchId",
          "type": "uint256"
        }
      ],
      "name": "getWatchInfo",
      "outputs": [
        {
          "internalType": "string",
          "name": "serialNumber",
          "type": "string"
        },
        {
          "internalType": "string",
          "name": "model",
          "type": "string"
        },
        {
          "internalType": "string",
          "name": "collection",
          "type": "string"
        },
        {
          "internalType": "string",
          "name": "dateOfManufacture",
          "type": "string"
        },
        {
          "internalType": "string",
          "name": "authorizedDealer",
          "type": "string"
        }
      ],
      "stateMutability": "view",
      "type": "function"
    },
    {
      "inputs": [
        {
          "internalType": "uint256",
          "name": "watchId",
          "type": "uint256"
        }
      ],
      "name": "getCurrentOwner",
      "outputs": [
        {
          "components": [
            {
              "internalType": "string",
              "name": "ownerId",
              "type": "string"
            },
            {
              "internalType": "string",
              "name": "ownerName",
              "type": "string"
            },
            {
              "internalType": "string",
              "name": "transferDate",
              "type": "string"
            },
            {
              "internalType": "string",
              "name": "contactNumber",
              "type": "string"
            },
            {
              "internalType": "string",
              "name": "email",
              "type": "string"
            }
          ],
          "internalType": "struct Watchain.OwnershipRecord",
          "name": "",
          "type": "tuple"
        }
      ],
      "stateMutability": "view",
      "type": "function"
    },
    {
      "inputs": [
        {
          "internalType": "uint256",
          "name": "watchId",
          "type": "uint256"
        }
      ],
      "name": "getOwnershipRecords",
      "outputs": [
        {
          "components": [
            {
              "internalType": "string",
              "name": "ownerId",
              "type": "string"
            },
            {
              "internalType": "string",
              "name": "ownerName",
              "type": "string"
            },
            {
              "internalType": "string",
              "name": "transferDate",
              "type": "string"
            },
            {
              "internalType": "string",
              "name": "contactNumber",
              "type": "string"
            },
            {
              "internalType": "string",
              "name": "email",
              "type": "string"
            }
          ],
          "internalType": "struct Watchain.OwnershipRecord[]",
          "name": "",
          "type": "tuple[]"
        }
      ],
      "stateMutability": "view",
      "type": "function"
    },
    {
      "inputs": [
        {
          "internalType": "uint256",
          "name": "watchId",
          "type": "uint256"
        }
      ],
      "name": "getServiceHistory",
      "outputs": [
        {
          "components": [
            {
              "internalType": "string",
              "name": "serviceDate",
              "type": "string"
            },
            {
              "internalType": "string",
              "name": "details",
              "type": "string"
            },
            {
              "internalType": "string",
              "name": "replacementParts",
              "type": "string"
            }
          ],
          "internalType": "struct Watchain.ServiceHistory[]",
          "name": "",
          "type": "tuple[]"
        }
      ],
      "stateMutability": "view",
      "type": "function"
    },
    {
      "inputs": [],
      "name": "getNoOfWatches",
      "outputs": [
        {
          "internalType": "uint256",
          "name": "",
          "type": "uint256"
        }
      ],
      "stateMutability": "view",
      "type": "function"
    }
  ],
  "bytecode": "0x60806040523480156200001157600080fd5b5060006001819055506040518060400160405280600881526020017f576174636861696e00000000000000000000000000000000000000000000000081525060009081620000609190620002e1565b50620003c8565b600081519050919050565b7f4e487b7100000000000000000000000000000000000000000000000000000000600052604160045260246000fd5b7f4e487b7100000000000000000000000000000000000000000000000000000000600052602260045260246000fd5b60006002820490506001821680620000e957607f821691505b602082108103620000ff57620000fe620000a1565b5b50919050565b60008190508160005260206000209050919050565b60006020601f8301049050919050565b600082821b905092915050565b600060088302620001697fffffffffffffffffffffffffffffffffffffffffffffffffffffffffffffffff826200012a565b6200017586836200012a565b95508019841693508086168417925050509392505050565b6000819050919050565b6000819050919050565b6000620001c2620001bc620001b6846200018d565b62000197565b6200018d565b9050919050565b6000819050919050565b620001de83620001a1565b620001f6620001ed82620001c9565b84845462000137565b825550505050565b600090565b6200020d620001fe565b6200021a818484620001d3565b505050565b5b8181101562000242576200023660008262000203565b60018101905062000220565b5050565b601f82111562000291576200025b8162000105565b62000266846200011a565b8101602085101562000276578190505b6200028e62000285856200011a565b8301826200021f565b50505b505050565b600082821c905092915050565b6000620002b66000198460080262000296565b1980831691505092915050565b6000620002d18383620002a3565b9150826002028217905092915050565b620002ec8262000067565b67ffffffffffffffff81111562000308576200030762000072565b5b620003148254620000d0565b6200032182828562000246565b600060209050601f83116001811462000359576000841562000344578287015190505b620003508582620002c3565b865550620003c0565b601f198416620003698662000105565b60005b8281101562000393578489015182556001820191506020850194506020810190506200036c565b86831015620003b35784890151620003af601f891682620002a3565b8355505b6001600288020188555050505b505050505050565b6126dc80620003d86000396000f3fe608060405234801561001057600080fd5b506004361061009e5760003560e01c8063804db0ce11610066578063804db0ce146101835780638cdbbc02146101b3578063d0355373146101cf578063ec70835914610204578063f5ec2eed146102225761009e565b8063086caf63146100a35780631e7046b5146100bf57806325a7b45e146100ef5780635aba75971461011f5780637ace341b14610153575b600080fd5b6100bd60048036038101906100b891906119d7565b610240565b005b6100d960048036038101906100d49190611a92565b6102e4565b6040516100e69190611c5e565b60405180910390f35b61010960048036038101906101049190611a92565b61050f565b6040516101169190611dd4565b60405180910390f35b61013960048036038101906101349190611a92565b61085e565b60405161014a959493929190611e40565b60405180910390f35b61016d60048036038101906101689190611a92565b610b61565b60405161017a9190611f48565b60405180910390f35b61019d60048036038101906101989190611f6a565b610e6b565b6040516101aa9190612170565b60405180910390f35b6101cd60048036038101906101c8919061218b565b61104c565b005b6101e960048036038101906101e49190611a92565b6111b8565b6040516101fb969594939291906122a4565b60405180910390f35b61020c611780565b6040516102199190612170565b60405180910390f35b61022a61178a565b604051610237919061232f565b60405180910390f35b60026000858152602001908152602001600020600b01604051806060016040528085815260200184815260200183815250908060018154018082558091505060019003906000526020600020906003020160009091909190915060008201518160000190816102af919061255d565b5060208201518160010190816102c5919061255d565b5060408201518160020190816102db919061255d565b50505050505050565b606060026000838152602001908152602001600020600b01805480602002602001604051908101604052809291908181526020016000905b82821015610504578382906000526020600020906003020160405180606001604052908160008201805461034f90612380565b80601f016020809104026020016040519081016040528092919081815260200182805461037b90612380565b80156103c85780601f1061039d576101008083540402835291602001916103c8565b820191906000526020600020905b8154815290600101906020018083116103ab57829003601f168201915b505050505081526020016001820180546103e190612380565b80601f016020809104026020016040519081016040528092919081815260200182805461040d90612380565b801561045a5780601f1061042f5761010080835404028352916020019161045a565b820191906000526020600020905b81548152906001019060200180831161043d57829003601f168201915b5050505050815260200160028201805461047390612380565b80601f016020809104026020016040519081016040528092919081815260200182805461049f90612380565b80156104ec5780601f106104c1576101008083540402835291602001916104ec565b820191906000526020600020905b8154815290600101906020018083116104cf57829003601f168201915b5050505050815250508152602001906001019061031c565b505050509050919050565b606060026000838152602001908152602001600020600a01805480602002602001604051908101604052809291908181526020016000905b8282101561085357838290600052602060002090600502016040518060a001604052908160008201805461057a90612380565b80601f01602080910402602001604051908101604052809291908181526020018280546105a690612380565b80156105f35780601f106105c8576101008083540402835291602001916105f3565b820191906000526020600020905b8154815290600101906020018083116105d657829003601f168201915b5050505050815260200160018201805461060c90612380565b80601f016020809104026020016040519081016040528092919081815260200182805461063890612380565b80156106855780601f1061065a57610100808354040283529160200191610685565b820191906000526020600020905b81548152906001019060200180831161066857829003601f168201915b5050505050815260200160028201805461069e90612380565b80601f01602080910402602001604051908101604052809291908181526020018280546106ca90612380565b80156107175780601f106106ec57610100808354040283529160200191610717565b820191906000526020600020905b8154815290600101906020018083116106fa57829003601f168201915b5050505050815260200160038201805461073090612380565b80601f016020809104026020016040519081016040528092919081815260200182805461075c90612380565b80156107a95780601f1061077e576101008083540402835291602001916107a9565b820191906000526020600020905b81548152906001019060200180831161078c57829003601f168201915b505050505081526020016004820180546107c290612380565b80601f01602080910402602001604051908101604052809291908181526020018280546107ee90612380565b801561083b5780601f106108105761010080835404028352916020019161083b565b820191906000526020600020905b81548152906001019060200180831161081e57829003601f168201915b50505050508152505081526020019060010190610547565b505050509050919050565b60608060608060606000600260008881526020019081526020016000209050806000018160010182600201836003018460040184805461089d90612380565b80601f01602080910402602001604051908101604052809291908181526020018280546108c990612380565b80156109165780601f106108eb57610100808354040283529160200191610916565b820191906000526020600020905b8154815290600101906020018083116108f957829003601f168201915b5050505050945083805461092990612380565b80601f016020809104026020016040519081016040528092919081815260200182805461095590612380565b80156109a25780601f10610977576101008083540402835291602001916109a2565b820191906000526020600020905b81548152906001019060200180831161098557829003601f168201915b505050505093508280546109b590612380565b80601f01602080910402602001604051908101604052809291908181526020018280546109e190612380565b8015610a2e5780601f10610a0357610100808354040283529160200191610a2e565b820191906000526020600020905b815481529060010190602001808311610a1157829003601f168201915b50505050509250818054610a4190612380565b80601f0160208091040260200160405190810160405280929190818152602001828054610a6d90612380565b8015610aba5780601f10610a8f57610100808354040283529160200191610aba565b820191906000526020600020905b815481529060010190602001808311610a9d57829003601f168201915b50505050509150808054610acd90612380565b80601f0160208091040260200160405190810160405280929190818152602001828054610af990612380565b8015610b465780601f10610b1b57610100808354040283529160200191610b46565b820191906000526020600020905b815481529060010190602001808311610b2957829003601f168201915b50505050509050955095509550955095505091939590929450565b610b69611818565b600260008381526020019081526020016000206005016040518060a0016040529081600082018054610b9a90612380565b80601f0160208091040260200160405190810160405280929190818152602001828054610bc690612380565b8015610c135780601f10610be857610100808354040283529160200191610c13565b820191906000526020600020905b815481529060010190602001808311610bf657829003601f168201915b50505050508152602001600182018054610c2c90612380565b80601f0160208091040260200160405190810160405280929190818152602001828054610c5890612380565b8015610ca55780601f10610c7a57610100808354040283529160200191610ca5565b820191906000526020600020905b815481529060010190602001808311610c8857829003601f168201915b50505050508152602001600282018054610cbe90612380565b80601f0160208091040260200160405190810160405280929190818152602001828054610cea90612380565b8015610d375780601f10610d0c57610100808354040283529160200191610d37565b820191906000526020600020905b815481529060010190602001808311610d1a57829003601f168201915b50505050508152602001600382018054610d5090612380565b80601f0160208091040260200160405190810160405280929190818152602001828054610d7c90612380565b8015610dc95780601f10610d9e57610100808354040283529160200191610dc9565b820191906000526020600020905b815481529060010190602001808311610dac57829003601f168201915b50505050508152602001600482018054610de290612380565b80601f0160208091040260200160405190810160405280929190818152602001828054610e0e90612380565b8015610e5b5780601f10610e3057610100808354040283529160200191610e5b565b820191906000526020600020905b815481529060010190602001808311610e3e57829003601f168201915b5050505050815250509050919050565b600060016000815480929190610e809061265e565b9190505550600060026000600154815260200190815260200160002090508b816000019081610eaf919061255d565b508a816001019081610ec1919061255d565b5089816002019081610ed3919061255d565b5088816003019081610ee5919061255d565b5087816004019081610ef7919061255d565b5060006040518060a0016040528089815260200188815260200185815260200187815260200186815250905080826005016000820151816000019081610f3d919061255d565b506020820151816001019081610f53919061255d565b506040820151816002019081610f69919061255d565b506060820151816003019081610f7f919061255d565b506080820151816004019081610f95919061255d565b5090505081600a018190806001815401808255809150506001900390600052602060002090600502016000909190919091506000820151816000019081610fdc919061255d565b506020820151816001019081610ff2919061255d565b506040820151816002019081611008919061255d565b50606082015181600301908161101e919061255d565b506080820151816004019081611034919061255d565b505050600154925050509a9950505050505050505050565b60006040518060a00160405280878152602001868152602001858152602001848152602001838152509050806002600089815260200190815260200160002060050160008201518160000190816110a3919061255d565b5060208201518160010190816110b9919061255d565b5060408201518160020190816110cf919061255d565b5060608201518160030190816110e5919061255d565b5060808201518160040190816110fb919061255d565b5090505060026000888152602001908152602001600020600a018190806001815401808255809150506001900390600052602060002090600502016000909190919091506000820151816000019081611154919061255d565b50602082015181600101908161116a919061255d565b506040820151816002019081611180919061255d565b506060820151816003019081611196919061255d565b5060808201518160040190816111ac919061255d565b50505050505050505050565b60026020528060005260406000206000915090508060000180546111db90612380565b80601f016020809104026020016040519081016040528092919081815260200182805461120790612380565b80156112545780601f1061122957610100808354040283529160200191611254565b820191906000526020600020905b81548152906001019060200180831161123757829003601f168201915b50505050509080600101805461126990612380565b80601f016020809104026020016040519081016040528092919081815260200182805461129590612380565b80156112e25780601f106112b7576101008083540402835291602001916112e2565b820191906000526020600020905b8154815290600101906020018083116112c557829003601f168201915b5050505050908060020180546112f790612380565b80601f016020809104026020016040519081016040528092919081815260200182805461132390612380565b80156113705780601f1061134557610100808354040283529160200191611370565b820191906000526020600020905b81548152906001019060200180831161135357829003601f168201915b50505050509080600301805461138590612380565b80601f01602080910402602001604051908101604052809291908181526020018280546113b190612380565b80156113fe5780601f106113d3576101008083540402835291602001916113fe565b820191906000526020600020905b8154815290600101906020018083116113e157829003601f168201915b50505050509080600401805461141390612380565b80601f016020809104026020016040519081016040528092919081815260200182805461143f90612380565b801561148c5780601f106114615761010080835404028352916020019161148c565b820191906000526020600020905b81548152906001019060200180831161146f57829003601f168201915b505050505090806005016040518060a00160405290816000820180546114b190612380565b80601f01602080910402602001604051908101604052809291908181526020018280546114dd90612380565b801561152a5780601f106114ff5761010080835404028352916020019161152a565b820191906000526020600020905b81548152906001019060200180831161150d57829003601f168201915b5050505050815260200160018201805461154390612380565b80601f016020809104026020016040519081016040528092919081815260200182805461156f90612380565b80156115bc5780601f10611591576101008083540402835291602001916115bc565b820191906000526020600020905b81548152906001019060200180831161159f57829003601f168201915b505050505081526020016002820180546115d590612380565b80601f016020809104026020016040519081016040528092919081815260200182805461160190612380565b801561164e5780601f106116235761010080835404028352916020019161164e565b820191906000526020600020905b81548152906001019060200180831161163157829003601f168201915b5050505050815260200160038201805461166790612380565b80601f016020809104026020016040519081016040528092919081815260200182805461169390612380565b80156116e05780601f106116b5576101008083540402835291602001916116e0565b820191906000526020600020905b8154815290600101906020018083116116c357829003601f168201915b505050505081526020016004820180546116f990612380565b80601f016020809104026020016040519081016040528092919081815260200182805461172590612380565b80156117725780601f1061174757610100808354040283529160200191611772565b820191906000526020600020905b81548152906001019060200180831161175557829003601f168201915b505050505081525050905086565b6000600154905090565b6000805461179790612380565b80601f01602080910402602001604051908101604052809291908181526020018280546117c390612380565b80156118105780601f106117e557610100808354040283529160200191611810565b820191906000526020600020905b8154815290600101906020018083116117f357829003601f168201915b505050505081565b6040518060a0016040528060608152602001606081526020016060815260200160608152602001606081525090565b6000604051905090565b600080fd5b600080fd5b6000819050919050565b61186e8161185b565b811461187957600080fd5b50565b60008135905061188b81611865565b92915050565b600080fd5b600080fd5b6000601f19601f8301169050919050565b7f4e487b7100000000000000000000000000000000000000000000000000000000600052604160045260246000fd5b6118e48261189b565b810181811067ffffffffffffffff82111715611903576119026118ac565b5b80604052505050565b6000611916611847565b905061192282826118db565b919050565b600067ffffffffffffffff821115611942576119416118ac565b5b61194b8261189b565b9050602081019050919050565b82818337600083830152505050565b600061197a61197584611927565b61190c565b90508281526020810184848401111561199657611995611896565b5b6119a1848285611958565b509392505050565b600082601f8301126119be576119bd611891565b5b81356119ce848260208601611967565b91505092915050565b600080600080608085870312156119f1576119f0611851565b5b60006119ff8782880161187c565b945050602085013567ffffffffffffffff811115611a2057611a1f611856565b5b611a2c878288016119a9565b935050604085013567ffffffffffffffff811115611a4d57611a4c611856565b5b611a59878288016119a9565b925050606085013567ffffffffffffffff811115611a7a57611a79611856565b5b611a86878288016119a9565b91505092959194509250565b600060208284031215611aa857611aa7611851565b5b6000611ab68482850161187c565b91505092915050565b600081519050919050565b600082825260208201905092915050565b6000819050602082019050919050565b600081519050919050565b600082825260208201905092915050565b60005b83811015611b25578082015181840152602081019050611b0a565b60008484015250505050565b6000611b3c82611aeb565b611b468185611af6565b9350611b56818560208601611b07565b611b5f8161189b565b840191505092915050565b60006060830160008301518482036000860152611b878282611b31565b91505060208301518482036020860152611ba18282611b31565b91505060408301518482036040860152611bbb8282611b31565b9150508091505092915050565b6000611bd48383611b6a565b905092915050565b6000602082019050919050565b6000611bf482611abf565b611bfe8185611aca565b935083602082028501611c1085611adb565b8060005b85811015611c4c5784840389528151611c2d8582611bc8565b9450611c3883611bdc565b925060208a01995050600181019050611c14565b50829750879550505050505092915050565b60006020820190508181036000830152611c788184611be9565b905092915050565b600081519050919050565b600082825260208201905092915050565b6000819050602082019050919050565b600060a0830160008301518482036000860152611cc98282611b31565b91505060208301518482036020860152611ce38282611b31565b91505060408301518482036040860152611cfd8282611b31565b91505060608301518482036060860152611d178282611b31565b91505060808301518482036080860152611d318282611b31565b9150508091505092915050565b6000611d4a8383611cac565b905092915050565b6000602082019050919050565b6000611d6a82611c80565b611d748185611c8b565b935083602082028501611d8685611c9c565b8060005b85811015611dc25784840389528151611da38582611d3e565b9450611dae83611d52565b925060208a01995050600181019050611d8a565b50829750879550505050505092915050565b60006020820190508181036000830152611dee8184611d5f565b905092915050565b600082825260208201905092915050565b6000611e1282611aeb565b611e1c8185611df6565b9350611e2c818560208601611b07565b611e358161189b565b840191505092915050565b600060a0820190508181036000830152611e5a8188611e07565b90508181036020830152611e6e8187611e07565b90508181036040830152611e828186611e07565b90508181036060830152611e968185611e07565b90508181036080830152611eaa8184611e07565b90509695505050505050565b600060a0830160008301518482036000860152611ed38282611b31565b91505060208301518482036020860152611eed8282611b31565b91505060408301518482036040860152611f078282611b31565b91505060608301518482036060860152611f218282611b31565b91505060808301518482036080860152611f3b8282611b31565b9150508091505092915050565b60006020820190508181036000830152611f628184611eb6565b905092915050565b6000806000806000806000806000806101408b8d031215611f8e57611f8d611851565b5b60008b013567ffffffffffffffff811115611fac57611fab611856565b5b611fb88d828e016119a9565b9a505060208b013567ffffffffffffffff811115611fd957611fd8611856565b5b611fe58d828e016119a9565b99505060408b013567ffffffffffffffff81111561200657612005611856565b5b6120128d828e016119a9565b98505060608b013567ffffffffffffffff81111561203357612032611856565b5b61203f8d828e016119a9565b97505060808b013567ffffffffffffffff8111156120605761205f611856565b5b61206c8d828e016119a9565b96505060a08b013567ffffffffffffffff81111561208d5761208c611856565b5b6120998d828e016119a9565b95505060c08b013567ffffffffffffffff8111156120ba576120b9611856565b5b6120c68d828e016119a9565b94505060e08b013567ffffffffffffffff8111156120e7576120e6611856565b5b6120f38d828e016119a9565b9350506101008b013567ffffffffffffffff81111561211557612114611856565b5b6121218d828e016119a9565b9250506101208b013567ffffffffffffffff81111561214357612142611856565b5b61214f8d828e016119a9565b9150509295989b9194979a5092959850565b61216a8161185b565b82525050565b60006020820190506121856000830184612161565b92915050565b60008060008060008060c087890312156121a8576121a7611851565b5b60006121b689828a0161187c565b965050602087013567ffffffffffffffff8111156121d7576121d6611856565b5b6121e389828a016119a9565b955050604087013567ffffffffffffffff81111561220457612203611856565b5b61221089828a016119a9565b945050606087013567ffffffffffffffff81111561223157612230611856565b5b61223d89828a016119a9565b935050608087013567ffffffffffffffff81111561225e5761225d611856565b5b61226a89828a016119a9565b92505060a087013567ffffffffffffffff81111561228b5761228a611856565b5b61229789828a016119a9565b9150509295509295509295565b600060c08201905081810360008301526122be8189611e07565b905081810360208301526122d28188611e07565b905081810360408301526122e68187611e07565b905081810360608301526122fa8186611e07565b9050818103608083015261230e8185611e07565b905081810360a08301526123228184611eb6565b9050979650505050505050565b600060208201905081810360008301526123498184611e07565b905092915050565b7f4e487b7100000000000000000000000000000000000000000000000000000000600052602260045260246000fd5b6000600282049050600182168061239857607f821691505b6020821081036123ab576123aa612351565b5b50919050565b60008190508160005260206000209050919050565b60006020601f8301049050919050565b600082821b905092915050565b6000600883026124137fffffffffffffffffffffffffffffffffffffffffffffffffffffffffffffffff826123d6565b61241d86836123d6565b95508019841693508086168417925050509392505050565b6000819050919050565b600061245a6124556124508461185b565b612435565b61185b565b9050919050565b6000819050919050565b6124748361243f565b61248861248082612461565b8484546123e3565b825550505050565b600090565b61249d612490565b6124a881848461246b565b505050565b5b818110156124cc576124c1600082612495565b6001810190506124ae565b5050565b601f821115612511576124e2816123b1565b6124eb846123c6565b810160208510156124fa578190505b61250e612506856123c6565b8301826124ad565b50505b505050565b600082821c905092915050565b600061253460001984600802612516565b1980831691505092915050565b600061254d8383612523565b9150826002028217905092915050565b61256682611aeb565b67ffffffffffffffff81111561257f5761257e6118ac565b5b6125898254612380565b6125948282856124d0565b600060209050601f8311600181146125c757600084156125b5578287015190505b6125bf8582612541565b865550612627565b601f1984166125d5866123b1565b60005b828110156125fd578489015182556001820191506020850194506020810190506125d8565b8683101561261a5784890151612616601f891682612523565b8355505b6001600288020188555050505b505050505050565b7f4e487b7100000000000000000000000000000000000000000000000000000000600052601160045260246000fd5b60006126698261185b565b91507fffffffffffffffffffffffffffffffffffffffffffffffffffffffffffffffff820361269b5761269a61262f565b5b60018201905091905056fea2646970667358221220de03de5a6cdb50851c05d4c2db9cf362621218845edd14374323adb6275dd66364736f6c63430008130033",
  "immutableReferences": {},
  "source": "// SPDX-License-Identifier: MIT\r\npragma solidity ^0.8.19;\r\n\r\ncontract Watchain {\r\n    string public companyName;\r\n    uint watchCount;\r\n\r\n    constructor() {\r\n        watchCount = 0;\r\n        companyName = \"Watchain\";\r\n    }\r\n\r\n    // Struct for watch details and watch history\r\n    struct Watch {\r\n        string serialNumber;\r\n        string model;\r\n        string collection;\r\n        string dateOfManufacture;\r\n        string authorizedDealer;\r\n        OwnershipRecord currentOwner; // Current owner's details\r\n        OwnershipRecord[] ownershipRecords;\r\n        ServiceHistory[] serviceHistory;\r\n    }\r\n\r\n    // Struct for ownership and transfer records\r\n    struct OwnershipRecord {\r\n        string ownerId;\r\n        string ownerName;\r\n        string transferDate;\r\n        string contactNumber;\r\n        string email;\r\n    }\r\n\r\n    // Struct for service and maintenance history\r\n    struct ServiceHistory {\r\n        string serviceDate;\r\n        string details;\r\n        string replacementParts; // Set to \"null\" if no parts were replaced\r\n    }\r\n\r\n    mapping(uint256 => Watch) public watches;\r\n\r\n    // Register a new watch\r\n    function registerWatch(\r\n        string memory _serialNumber,\r\n        string memory _model,\r\n        string memory _collection,\r\n        string memory _dateOfManufacture,\r\n        string memory _authorizedDealer,\r\n        string memory _initialOwnerId,\r\n        string memory _initialOwnerName,\r\n        string memory _initialOwnerContact,\r\n        string memory _initialOwnerEmail,\r\n        string memory _purchaseDate\r\n    ) public returns (uint256) {\r\n        watchCount++;\r\n\r\n        // Create a new watch and initialize its arrays\r\n        Watch storage newWatch = watches[watchCount];\r\n        newWatch.serialNumber = _serialNumber;\r\n        newWatch.model = _model;\r\n        newWatch.collection = _collection;\r\n        newWatch.dateOfManufacture = _dateOfManufacture;\r\n        newWatch.authorizedDealer = _authorizedDealer;\r\n\r\n        // Set the initial owner as the current owner\r\n        OwnershipRecord memory initialOwner = OwnershipRecord(\r\n            _initialOwnerId,\r\n            _initialOwnerName,\r\n            _purchaseDate,\r\n            _initialOwnerContact,\r\n            _initialOwnerEmail\r\n        );\r\n        newWatch.currentOwner = initialOwner;\r\n\r\n        // Add the initial owner to ownership records\r\n        newWatch.ownershipRecords.push(initialOwner);\r\n\r\n        return watchCount;\r\n    }\r\n\r\n    // Add ownership transfer record --> appending and updating current owner\r\n    function addOwnershipRecord(\r\n        uint256 watchId,\r\n        string memory _newOwnerId,\r\n        string memory _newOwnerName, \r\n        string memory _transferDate,\r\n        string memory _newOwnerContact,\r\n        string memory _newOwnerEmail\r\n    ) public {\r\n        // Create a new ownership record\r\n        OwnershipRecord memory newOwner = OwnershipRecord(\r\n            _newOwnerId,\r\n            _newOwnerName,\r\n            _transferDate,\r\n            _newOwnerContact,\r\n            _newOwnerEmail\r\n        );\r\n\r\n        // Update the current owner \r\n        watches[watchId].currentOwner = newOwner;\r\n\r\n        // Add the new ownership record to the watch's ownershipRecords array\r\n        watches[watchId].ownershipRecords.push(newOwner);\r\n    }\r\n\r\n    // Add service history record\r\n    function addServiceRecord(\r\n        uint256 watchId,\r\n        string memory _serviceDate,\r\n        string memory _details,\r\n        string memory _replacementParts\r\n    ) public {\r\n        watches[watchId].serviceHistory.push(\r\n            ServiceHistory(\r\n                _serviceDate,\r\n                _details,\r\n                _replacementParts\r\n            )\r\n        );\r\n    }\r\n\r\n    // Retrieve watch information\r\n    function getWatchInfo(uint256 watchId) public view returns (\r\n        string memory serialNumber,\r\n        string memory model,\r\n        string memory collection,\r\n        string memory dateOfManufacture,\r\n        string memory authorizedDealer\r\n    ) {\r\n        Watch storage watch = watches[watchId];\r\n        return (\r\n            watch.serialNumber,\r\n            watch.model,\r\n            watch.collection,\r\n            watch.dateOfManufacture,\r\n            watch.authorizedDealer\r\n        );\r\n    }\r\n\r\n    // Retrieve current owner\r\n    function getCurrentOwner(uint256 watchId) public view returns (OwnershipRecord memory) {\r\n        return watches[watchId].currentOwner;\r\n    }\r\n\r\n    // Retrieve ownership records\r\n    function getOwnershipRecords(uint256 watchId) public view returns (OwnershipRecord[] memory) {\r\n        return watches[watchId].ownershipRecords;\r\n    }\r\n\r\n    // Retrieve service history\r\n    function getServiceHistory(uint256 watchId) public view returns (ServiceHistory[] memory) {\r\n        return watches[watchId].serviceHistory;\r\n    }\r\n\r\n    // Retrieve total number of watches\r\n    function getNoOfWatches() public view returns (uint) {\r\n        return watchCount;\r\n    }\r\n}\r\n",
  "sourcePath": "C:\\Users\\23030977\\OneDrive\\Y1 SEM 1\\Y1 SEM 2\\Y2 SEM 2\\C373\\GA\\Watchain\\contracts\\Watchain.sol",
  "compiler": {
    "name": "solc",
    "version": "0.8.19+commit.7dd6d404.Emscripten.clang"
  },
  "schemaVersion": "3.4.16",
  "updatedAt": "2024-11-22T11:58:19.587Z",
  "devdoc": {
    "kind": "dev",
    "methods": {},
    "version": 1
  },
  "userdoc": {
    "kind": "user",
    "methods": {},
    "version": 1
  }
}