{
  "contractName": "Watchain",
  "abi": [
    {
      "inputs": [],
      "stateMutability": "nonpayable",
      "type": "constructor"
    },
    {
      "anonymous": false,
      "inputs": [
        {
          "indexed": false,
          "internalType": "uint256",
          "name": "watchId",
          "type": "uint256"
        },
        {
          "indexed": false,
          "internalType": "address payable",
          "name": "ownerId",
          "type": "address"
        },
        {
          "indexed": false,
          "internalType": "string",
          "name": "ownerName",
          "type": "string"
        },
        {
          "indexed": false,
          "internalType": "string",
          "name": "transferDate",
          "type": "string"
        }
      ],
      "name": "OwnershipRecorded",
      "type": "event"
    },
    {
      "anonymous": false,
      "inputs": [
        {
          "indexed": false,
          "internalType": "uint256",
          "name": "watchId",
          "type": "uint256"
        },
        {
          "indexed": false,
          "internalType": "string",
          "name": "serviceDate",
          "type": "string"
        },
        {
          "indexed": false,
          "internalType": "string",
          "name": "details",
          "type": "string"
        },
        {
          "indexed": false,
          "internalType": "string",
          "name": "replacementParts",
          "type": "string"
        }
      ],
      "name": "ServiceRecordAdded",
      "type": "event"
    },
    {
      "anonymous": false,
      "inputs": [
        {
          "indexed": false,
          "internalType": "uint256",
          "name": "watchId",
          "type": "uint256"
        },
        {
          "indexed": false,
          "internalType": "string",
          "name": "serialNumber",
          "type": "string"
        },
        {
          "indexed": false,
          "internalType": "uint256",
          "name": "price",
          "type": "uint256"
        },
        {
          "indexed": false,
          "internalType": "address payable",
          "name": "owner",
          "type": "address"
        },
        {
          "indexed": false,
          "internalType": "enum Watchain.WatchStatus",
          "name": "status",
          "type": "uint8"
        }
      ],
      "name": "WatchPurchased",
      "type": "event"
    },
    {
      "anonymous": false,
      "inputs": [
        {
          "indexed": false,
          "internalType": "uint256",
          "name": "watchId",
          "type": "uint256"
        },
        {
          "indexed": false,
          "internalType": "string",
          "name": "serialNumber",
          "type": "string"
        },
        {
          "indexed": false,
          "internalType": "string",
          "name": "model",
          "type": "string"
        },
        {
          "indexed": false,
          "internalType": "string",
          "name": "collection",
          "type": "string"
        }
      ],
      "name": "WatchRegistered",
      "type": "event"
    },
    {
      "inputs": [],
      "name": "companyName",
      "outputs": [
        {
          "internalType": "string",
          "name": "",
          "type": "string"
        }
      ],
      "stateMutability": "view",
      "type": "function"
    },
    {
      "inputs": [
        {
          "internalType": "uint256",
          "name": "",
          "type": "uint256"
        }
      ],
      "name": "watches",
      "outputs": [
        {
          "components": [
            {
              "internalType": "string",
              "name": "serialNumber",
              "type": "string"
            },
            {
              "internalType": "string",
              "name": "model",
              "type": "string"
            },
            {
              "internalType": "string",
              "name": "collection",
              "type": "string"
            },
            {
              "internalType": "string",
              "name": "dateOfManufacture",
              "type": "string"
            },
            {
              "internalType": "string",
              "name": "authorizedDealer",
              "type": "string"
            },
            {
              "internalType": "string",
              "name": "watchImage",
              "type": "string"
            },
            {
              "internalType": "uint256",
              "name": "price",
              "type": "uint256"
            },
            {
              "internalType": "enum Watchain.WatchStatus",
              "name": "status",
              "type": "uint8"
            }
          ],
          "internalType": "struct Watchain.WatchInformation",
          "name": "watchInfo",
          "type": "tuple"
        }
      ],
      "stateMutability": "view",
      "type": "function"
    },
    {
      "inputs": [],
      "name": "getCompanyName",
      "outputs": [
        {
          "internalType": "string",
          "name": "",
          "type": "string"
        }
      ],
      "stateMutability": "view",
      "type": "function"
    },
    {
      "inputs": [],
      "name": "getNoOfWatches",
      "outputs": [
        {
          "internalType": "uint256",
          "name": "",
          "type": "uint256"
        }
      ],
      "stateMutability": "view",
      "type": "function"
    },
    {
      "inputs": [
        {
          "internalType": "string",
          "name": "_serialNumber",
          "type": "string"
        },
        {
          "internalType": "string",
          "name": "_model",
          "type": "string"
        },
        {
          "internalType": "string",
          "name": "_collection",
          "type": "string"
        },
        {
          "internalType": "string",
          "name": "_dateOfManufacture",
          "type": "string"
        },
        {
          "internalType": "string",
          "name": "_authorizedDealer",
          "type": "string"
        },
        {
          "internalType": "string",
          "name": "_watchImage",
          "type": "string"
        },
        {
          "internalType": "uint256",
          "name": "_price",
          "type": "uint256"
        }
      ],
      "name": "registerWatch",
      "outputs": [
        {
          "internalType": "uint256",
          "name": "",
          "type": "uint256"
        }
      ],
      "stateMutability": "nonpayable",
      "type": "function"
    },
    {
      "inputs": [
        {
          "internalType": "uint256",
          "name": "watchId",
          "type": "uint256"
        },
        {
          "internalType": "string",
          "name": "_ownerName",
          "type": "string"
        },
        {
          "internalType": "string",
          "name": "_transferDate",
          "type": "string"
        },
        {
          "internalType": "string",
          "name": "_contactNumber",
          "type": "string"
        },
        {
          "internalType": "string",
          "name": "_email",
          "type": "string"
        }
      ],
      "name": "addOwnershipRecord",
      "outputs": [],
      "stateMutability": "nonpayable",
      "type": "function"
    },
    {
      "inputs": [
        {
          "internalType": "uint256",
          "name": "watchId",
          "type": "uint256"
        },
        {
          "internalType": "string",
          "name": "_serviceDate",
          "type": "string"
        },
        {
          "internalType": "string",
          "name": "_details",
          "type": "string"
        },
        {
          "internalType": "string",
          "name": "_replacementParts",
          "type": "string"
        }
      ],
      "name": "addServiceRecord",
      "outputs": [],
      "stateMutability": "nonpayable",
      "type": "function"
    },
    {
      "inputs": [
        {
          "internalType": "uint256",
          "name": "watchId",
          "type": "uint256"
        }
      ],
      "name": "getWatchInfo",
      "outputs": [
        {
          "components": [
            {
              "internalType": "string",
              "name": "serialNumber",
              "type": "string"
            },
            {
              "internalType": "string",
              "name": "model",
              "type": "string"
            },
            {
              "internalType": "string",
              "name": "collection",
              "type": "string"
            },
            {
              "internalType": "string",
              "name": "dateOfManufacture",
              "type": "string"
            },
            {
              "internalType": "string",
              "name": "authorizedDealer",
              "type": "string"
            },
            {
              "internalType": "string",
              "name": "watchImage",
              "type": "string"
            },
            {
              "internalType": "uint256",
              "name": "price",
              "type": "uint256"
            },
            {
              "internalType": "enum Watchain.WatchStatus",
              "name": "status",
              "type": "uint8"
            }
          ],
          "internalType": "struct Watchain.WatchInformation",
          "name": "",
          "type": "tuple"
        }
      ],
      "stateMutability": "view",
      "type": "function"
    },
    {
      "inputs": [
        {
          "internalType": "uint256",
          "name": "watchId",
          "type": "uint256"
        }
      ],
      "name": "getOwnershipRecords",
      "outputs": [
        {
          "components": [
            {
              "internalType": "address payable",
              "name": "ownerId",
              "type": "address"
            },
            {
              "internalType": "string",
              "name": "ownerName",
              "type": "string"
            },
            {
              "internalType": "string",
              "name": "transferDate",
              "type": "string"
            },
            {
              "internalType": "string",
              "name": "contactNumber",
              "type": "string"
            },
            {
              "internalType": "string",
              "name": "email",
              "type": "string"
            }
          ],
          "internalType": "struct Watchain.OwnershipRecord[]",
          "name": "",
          "type": "tuple[]"
        }
      ],
      "stateMutability": "view",
      "type": "function"
    },
    {
      "inputs": [
        {
          "internalType": "uint256",
          "name": "watchId",
          "type": "uint256"
        }
      ],
      "name": "getServiceHistory",
      "outputs": [
        {
          "components": [
            {
              "internalType": "string",
              "name": "serviceDate",
              "type": "string"
            },
            {
              "internalType": "string",
              "name": "details",
              "type": "string"
            },
            {
              "internalType": "string",
              "name": "replacementParts",
              "type": "string"
            }
          ],
          "internalType": "struct Watchain.ServiceHistory[]",
          "name": "",
          "type": "tuple[]"
        }
      ],
      "stateMutability": "view",
      "type": "function"
    },
    {
      "inputs": [
        {
          "internalType": "uint256",
          "name": "watchId",
          "type": "uint256"
        }
      ],
      "name": "purchaseWatch",
      "outputs": [],
      "stateMutability": "payable",
      "type": "function"
    }
  ],
  "bytecode": "0x60806040523480156200001157600080fd5b5060006001819055506040518060400160405280600881526020017f576174636861696e00000000000000000000000000000000000000000000000081525060009081620000609190620002e1565b50620003c8565b600081519050919050565b7f4e487b7100000000000000000000000000000000000000000000000000000000600052604160045260246000fd5b7f4e487b7100000000000000000000000000000000000000000000000000000000600052602260045260246000fd5b60006002820490506001821680620000e957607f821691505b602082108103620000ff57620000fe620000a1565b5b50919050565b60008190508160005260206000209050919050565b60006020601f8301049050919050565b600082821b905092915050565b600060088302620001697fffffffffffffffffffffffffffffffffffffffffffffffffffffffffffffffff826200012a565b6200017586836200012a565b95508019841693508086168417925050509392505050565b6000819050919050565b6000819050919050565b6000620001c2620001bc620001b6846200018d565b62000197565b6200018d565b9050919050565b6000819050919050565b620001de83620001a1565b620001f6620001ed82620001c9565b84845462000137565b825550505050565b600090565b6200020d620001fe565b6200021a818484620001d3565b505050565b5b8181101562000242576200023660008262000203565b60018101905062000220565b5050565b601f82111562000291576200025b8162000105565b62000266846200011a565b8101602085101562000276578190505b6200028e62000285856200011a565b8301826200021f565b50505b505050565b600082821c905092915050565b6000620002b66000198460080262000296565b1980831691505092915050565b6000620002d18383620002a3565b9150826002028217905092915050565b620002ec8262000067565b67ffffffffffffffff81111562000308576200030762000072565b5b620003148254620000d0565b6200032182828562000246565b600060209050601f83116001811462000359576000841562000344578287015190505b620003508582620002c3565b865550620003c0565b601f198416620003698662000105565b60005b8281101562000393578489015182556001820191506020850194506020810190506200036c565b86831015620003b35784890151620003af601f891682620002a3565b8355505b6001600288020188555050505b505050505050565b61295e80620003d86000396000f3fe60806040526004361061009c5760003560e01c80635aba7597116100645780635aba75971461018b5780635ef65d54146101c8578063d035537314610205578063e38489bb14610242578063ec7083591461026b578063f5ec2eed146102965761009c565b8063086caf63146100a15780631e7046b5146100ca57806325a7b45e1461010757806343cfbd6514610144578063587576bc1461016f575b600080fd5b3480156100ad57600080fd5b506100c860048036038101906100c39190611978565b6102c1565b005b3480156100d657600080fd5b506100f160048036038101906100ec9190611a33565b6103a2565b6040516100fe9190611bff565b60405180910390f35b34801561011357600080fd5b5061012e60048036038101906101299190611a33565b6105cd565b60405161013b9190611daf565b60405180910390f35b34801561015057600080fd5b506101596108e0565b6040516101669190611e1b565b60405180910390f35b61018960048036038101906101849190611a33565b610972565b005b34801561019757600080fd5b506101b260048036038101906101ad9190611a33565b610c4d565b6040516101bf9190611f96565b60405180910390f35b3480156101d457600080fd5b506101ef60048036038101906101ea9190611fb8565b61102f565b6040516101fc9190612111565b60405180910390f35b34801561021157600080fd5b5061022c60048036038101906102279190611a33565b6111be565b6040516102399190611f96565b60405180910390f35b34801561024e57600080fd5b506102696004803603810190610264919061212c565b611598565b005b34801561027757600080fd5b506102806116f9565b60405161028d9190612111565b60405180910390f35b3480156102a257600080fd5b506102ab611703565b6040516102b89190611e1b565b60405180910390f35b60026000858152602001908152602001600020600901604051806060016040528085815260200184815260200183815250908060018154018082558091505060019003906000526020600020906003020160009091909190915060008201518160000190816103309190612423565b5060208201518160010190816103469190612423565b50604082015181600201908161035c9190612423565b5050507fd0d29df8b84036496930c1695583c95ddc0708d3860f9e2b869a2a510d0533bc8484848460405161039494939291906124f5565b60405180910390a150505050565b606060026000838152602001908152602001600020600901805480602002602001604051908101604052809291908181526020016000905b828210156105c2578382906000526020600020906003020160405180606001604052908160008201805461040d90612246565b80601f016020809104026020016040519081016040528092919081815260200182805461043990612246565b80156104865780601f1061045b57610100808354040283529160200191610486565b820191906000526020600020905b81548152906001019060200180831161046957829003601f168201915b5050505050815260200160018201805461049f90612246565b80601f01602080910402602001604051908101604052809291908181526020018280546104cb90612246565b80156105185780601f106104ed57610100808354040283529160200191610518565b820191906000526020600020905b8154815290600101906020018083116104fb57829003601f168201915b5050505050815260200160028201805461053190612246565b80601f016020809104026020016040519081016040528092919081815260200182805461055d90612246565b80156105aa5780601f1061057f576101008083540402835291602001916105aa565b820191906000526020600020905b81548152906001019060200180831161058d57829003601f168201915b505050505081525050815260200190600101906103da565b505050509050919050565b606060026000838152602001908152602001600020600801805480602002602001604051908101604052809291908181526020016000905b828210156108d557838290600052602060002090600502016040518060a00160405290816000820160009054906101000a900473ffffffffffffffffffffffffffffffffffffffff1673ffffffffffffffffffffffffffffffffffffffff1673ffffffffffffffffffffffffffffffffffffffff16815260200160018201805461068e90612246565b80601f01602080910402602001604051908101604052809291908181526020018280546106ba90612246565b80156107075780601f106106dc57610100808354040283529160200191610707565b820191906000526020600020905b8154815290600101906020018083116106ea57829003601f168201915b5050505050815260200160028201805461072090612246565b80601f016020809104026020016040519081016040528092919081815260200182805461074c90612246565b80156107995780601f1061076e57610100808354040283529160200191610799565b820191906000526020600020905b81548152906001019060200180831161077c57829003601f168201915b505050505081526020016003820180546107b290612246565b80601f01602080910402602001604051908101604052809291908181526020018280546107de90612246565b801561082b5780601f106108005761010080835404028352916020019161082b565b820191906000526020600020905b81548152906001019060200180831161080e57829003601f168201915b5050505050815260200160048201805461084490612246565b80601f016020809104026020016040519081016040528092919081815260200182805461087090612246565b80156108bd5780601f10610892576101008083540402835291602001916108bd565b820191906000526020600020905b8154815290600101906020018083116108a057829003601f168201915b50505050508152505081526020019060010190610605565b505050509050919050565b6060600080546108ef90612246565b80601f016020809104026020016040519081016040528092919081815260200182805461091b90612246565b80156109685780601f1061093d57610100808354040283529160200191610968565b820191906000526020600020905b81548152906001019060200180831161094b57829003601f168201915b5050505050905090565b60006002600083815260200190815260200160002090506000821180156109ad575060008160000160000180546109a890612246565b905014155b6109ec576040517f08c379a00000000000000000000000000000000000000000000000000000000081526004016109e39061259b565b60405180910390fd5b8060000160060154341015610a36576040517f08c379a0000000000000000000000000000000000000000000000000000000008152600401610a2d90612607565b60405180910390fd5b60006001811115610a4a57610a49611e4c565b5b8160000160070160009054906101000a900460ff166001811115610a7157610a70611e4c565b5b14610ab1576040517f08c379a0000000000000000000000000000000000000000000000000000000008152600401610aa890612673565b60405180910390fd5b600081600801805490509050600082600801600183610ad091906126c2565b81548110610ae157610ae06126f6565b5b906000526020600020906005020160000160009054906101000a900473ffffffffffffffffffffffffffffffffffffffff1690503373ffffffffffffffffffffffffffffffffffffffff168173ffffffffffffffffffffffffffffffffffffffff1603610b83576040517f08c379a0000000000000000000000000000000000000000000000000000000008152600401610b7a90612771565b60405180910390fd5b60018360000160070160006101000a81548160ff02191690836001811115610bae57610bad611e4c565b5b02179055508073ffffffffffffffffffffffffffffffffffffffff166108fc349081150290604051600060405180830381858888f19350505050158015610bf9573d6000803e3d6000fd5b507f71e6603c3a62c2989fcce529d0cba49c9d763cb0558e142fe2c20c89a7f0394484846000016000018560000160060154336001604051610c3f959493929190612833565b60405180910390a150505050565b610c55611791565b6002600083815260200190815260200160002060000160405180610100016040529081600082018054610c8790612246565b80601f0160208091040260200160405190810160405280929190818152602001828054610cb390612246565b8015610d005780601f10610cd557610100808354040283529160200191610d00565b820191906000526020600020905b815481529060010190602001808311610ce357829003601f168201915b50505050508152602001600182018054610d1990612246565b80601f0160208091040260200160405190810160405280929190818152602001828054610d4590612246565b8015610d925780601f10610d6757610100808354040283529160200191610d92565b820191906000526020600020905b815481529060010190602001808311610d7557829003601f168201915b50505050508152602001600282018054610dab90612246565b80601f0160208091040260200160405190810160405280929190818152602001828054610dd790612246565b8015610e245780601f10610df957610100808354040283529160200191610e24565b820191906000526020600020905b815481529060010190602001808311610e0757829003601f168201915b50505050508152602001600382018054610e3d90612246565b80601f0160208091040260200160405190810160405280929190818152602001828054610e6990612246565b8015610eb65780601f10610e8b57610100808354040283529160200191610eb6565b820191906000526020600020905b815481529060010190602001808311610e9957829003601f168201915b50505050508152602001600482018054610ecf90612246565b80601f0160208091040260200160405190810160405280929190818152602001828054610efb90612246565b8015610f485780601f10610f1d57610100808354040283529160200191610f48565b820191906000526020600020905b815481529060010190602001808311610f2b57829003601f168201915b50505050508152602001600582018054610f6190612246565b80601f0160208091040260200160405190810160405280929190818152602001828054610f8d90612246565b8015610fda5780601f10610faf57610100808354040283529160200191610fda565b820191906000526020600020905b815481529060010190602001808311610fbd57829003601f168201915b50505050508152602001600682015481526020016007820160009054906101000a900460ff16600181111561101257611011611e4c565b5b600181111561102457611023611e4c565b5b815250509050919050565b6000600160008154809291906110449061288d565b91905055506040518061010001604052808981526020018881526020018781526020018681526020018581526020018481526020018381526020016000600181111561109357611092611e4c565b5b81525060026000600154815260200190815260200160002060000160008201518160000190816110c39190612423565b5060208201518160010190816110d99190612423565b5060408201518160020190816110ef9190612423565b5060608201518160030190816111059190612423565b50608082015181600401908161111b9190612423565b5060a08201518160050190816111319190612423565b5060c0820151816006015560e08201518160070160006101000a81548160ff0219169083600181111561116757611166611e4c565b5b02179055509050507fea822aa7d32f361b3e7a7daaae8accb139eb9fcd34e128f5dc889e9ebe2904876001548989896040516111a694939291906124f5565b60405180910390a16001549050979650505050505050565b600260205280600052604060002060009150905080600001604051806101000160405290816000820180546111f290612246565b80601f016020809104026020016040519081016040528092919081815260200182805461121e90612246565b801561126b5780601f106112405761010080835404028352916020019161126b565b820191906000526020600020905b81548152906001019060200180831161124e57829003601f168201915b5050505050815260200160018201805461128490612246565b80601f01602080910402602001604051908101604052809291908181526020018280546112b090612246565b80156112fd5780601f106112d2576101008083540402835291602001916112fd565b820191906000526020600020905b8154815290600101906020018083116112e057829003601f168201915b5050505050815260200160028201805461131690612246565b80601f016020809104026020016040519081016040528092919081815260200182805461134290612246565b801561138f5780601f106113645761010080835404028352916020019161138f565b820191906000526020600020905b81548152906001019060200180831161137257829003601f168201915b505050505081526020016003820180546113a890612246565b80601f01602080910402602001604051908101604052809291908181526020018280546113d490612246565b80156114215780601f106113f657610100808354040283529160200191611421565b820191906000526020600020905b81548152906001019060200180831161140457829003601f168201915b5050505050815260200160048201805461143a90612246565b80601f016020809104026020016040519081016040528092919081815260200182805461146690612246565b80156114b35780601f10611488576101008083540402835291602001916114b3565b820191906000526020600020905b81548152906001019060200180831161149657829003601f168201915b505050505081526020016005820180546114cc90612246565b80601f01602080910402602001604051908101604052809291908181526020018280546114f890612246565b80156115455780601f1061151a57610100808354040283529160200191611545565b820191906000526020600020905b81548152906001019060200180831161152857829003601f168201915b50505050508152602001600682015481526020016007820160009054906101000a900460ff16600181111561157d5761157c611e4c565b5b600181111561158f5761158e611e4c565b5b81525050905081565b600260008681526020019081526020016000206008016040518060a001604052803373ffffffffffffffffffffffffffffffffffffffff16815260200186815260200185815260200184815260200183815250908060018154018082558091505060019003906000526020600020906005020160009091909190915060008201518160000160006101000a81548173ffffffffffffffffffffffffffffffffffffffff021916908373ffffffffffffffffffffffffffffffffffffffff16021790555060208201518160010190816116709190612423565b5060408201518160020190816116869190612423565b50606082015181600301908161169c9190612423565b5060808201518160040190816116b29190612423565b5050507f553aa985ddabac220fd59325937c7e0a40d085fa5a166198920b6529174c8eed853386866040516116ea94939291906128d5565b60405180910390a15050505050565b6000600154905090565b6000805461171090612246565b80601f016020809104026020016040519081016040528092919081815260200182805461173c90612246565b80156117895780601f1061175e57610100808354040283529160200191611789565b820191906000526020600020905b81548152906001019060200180831161176c57829003601f168201915b505050505081565b60405180610100016040528060608152602001606081526020016060815260200160608152602001606081526020016060815260200160008152602001600060018111156117e2576117e1611e4c565b5b81525090565b6000604051905090565b600080fd5b600080fd5b6000819050919050565b61180f816117fc565b811461181a57600080fd5b50565b60008135905061182c81611806565b92915050565b600080fd5b600080fd5b6000601f19601f8301169050919050565b7f4e487b7100000000000000000000000000000000000000000000000000000000600052604160045260246000fd5b6118858261183c565b810181811067ffffffffffffffff821117156118a4576118a361184d565b5b80604052505050565b60006118b76117e8565b90506118c3828261187c565b919050565b600067ffffffffffffffff8211156118e3576118e261184d565b5b6118ec8261183c565b9050602081019050919050565b82818337600083830152505050565b600061191b611916846118c8565b6118ad565b90508281526020810184848401111561193757611936611837565b5b6119428482856118f9565b509392505050565b600082601f83011261195f5761195e611832565b5b813561196f848260208601611908565b91505092915050565b60008060008060808587031215611992576119916117f2565b5b60006119a08782880161181d565b945050602085013567ffffffffffffffff8111156119c1576119c06117f7565b5b6119cd8782880161194a565b935050604085013567ffffffffffffffff8111156119ee576119ed6117f7565b5b6119fa8782880161194a565b925050606085013567ffffffffffffffff811115611a1b57611a1a6117f7565b5b611a278782880161194a565b91505092959194509250565b600060208284031215611a4957611a486117f2565b5b6000611a578482850161181d565b91505092915050565b600081519050919050565b600082825260208201905092915050565b6000819050602082019050919050565b600081519050919050565b600082825260208201905092915050565b60005b83811015611ac6578082015181840152602081019050611aab565b60008484015250505050565b6000611add82611a8c565b611ae78185611a97565b9350611af7818560208601611aa8565b611b008161183c565b840191505092915050565b60006060830160008301518482036000860152611b288282611ad2565b91505060208301518482036020860152611b428282611ad2565b91505060408301518482036040860152611b5c8282611ad2565b9150508091505092915050565b6000611b758383611b0b565b905092915050565b6000602082019050919050565b6000611b9582611a60565b611b9f8185611a6b565b935083602082028501611bb185611a7c565b8060005b85811015611bed5784840389528151611bce8582611b69565b9450611bd983611b7d565b925060208a01995050600181019050611bb5565b50829750879550505050505092915050565b60006020820190508181036000830152611c198184611b8a565b905092915050565b600081519050919050565b600082825260208201905092915050565b6000819050602082019050919050565b600073ffffffffffffffffffffffffffffffffffffffff82169050919050565b6000611c7882611c4d565b9050919050565b611c8881611c6d565b82525050565b600060a083016000830151611ca66000860182611c7f565b5060208301518482036020860152611cbe8282611ad2565b91505060408301518482036040860152611cd88282611ad2565b91505060608301518482036060860152611cf28282611ad2565b91505060808301518482036080860152611d0c8282611ad2565b9150508091505092915050565b6000611d258383611c8e565b905092915050565b6000602082019050919050565b6000611d4582611c21565b611d4f8185611c2c565b935083602082028501611d6185611c3d565b8060005b85811015611d9d5784840389528151611d7e8582611d19565b9450611d8983611d2d565b925060208a01995050600181019050611d65565b50829750879550505050505092915050565b60006020820190508181036000830152611dc98184611d3a565b905092915050565b600082825260208201905092915050565b6000611ded82611a8c565b611df78185611dd1565b9350611e07818560208601611aa8565b611e108161183c565b840191505092915050565b60006020820190508181036000830152611e358184611de2565b905092915050565b611e46816117fc565b82525050565b7f4e487b7100000000000000000000000000000000000000000000000000000000600052602160045260246000fd5b60028110611e8c57611e8b611e4c565b5b50565b6000819050611e9d82611e7b565b919050565b6000611ead82611e8f565b9050919050565b611ebd81611ea2565b82525050565b6000610100830160008301518482036000860152611ee18282611ad2565b91505060208301518482036020860152611efb8282611ad2565b91505060408301518482036040860152611f158282611ad2565b91505060608301518482036060860152611f2f8282611ad2565b91505060808301518482036080860152611f498282611ad2565b91505060a083015184820360a0860152611f638282611ad2565b91505060c0830151611f7860c0860182611e3d565b5060e0830151611f8b60e0860182611eb4565b508091505092915050565b60006020820190508181036000830152611fb08184611ec3565b905092915050565b600080600080600080600060e0888a031215611fd757611fd66117f2565b5b600088013567ffffffffffffffff811115611ff557611ff46117f7565b5b6120018a828b0161194a565b975050602088013567ffffffffffffffff811115612022576120216117f7565b5b61202e8a828b0161194a565b965050604088013567ffffffffffffffff81111561204f5761204e6117f7565b5b61205b8a828b0161194a565b955050606088013567ffffffffffffffff81111561207c5761207b6117f7565b5b6120888a828b0161194a565b945050608088013567ffffffffffffffff8111156120a9576120a86117f7565b5b6120b58a828b0161194a565b93505060a088013567ffffffffffffffff8111156120d6576120d56117f7565b5b6120e28a828b0161194a565b92505060c06120f38a828b0161181d565b91505092959891949750929550565b61210b816117fc565b82525050565b60006020820190506121266000830184612102565b92915050565b600080600080600060a08688031215612148576121476117f2565b5b60006121568882890161181d565b955050602086013567ffffffffffffffff811115612177576121766117f7565b5b6121838882890161194a565b945050604086013567ffffffffffffffff8111156121a4576121a36117f7565b5b6121b08882890161194a565b935050606086013567ffffffffffffffff8111156121d1576121d06117f7565b5b6121dd8882890161194a565b925050608086013567ffffffffffffffff8111156121fe576121fd6117f7565b5b61220a8882890161194a565b9150509295509295909350565b7f4e487b7100000000000000000000000000000000000000000000000000000000600052602260045260246000fd5b6000600282049050600182168061225e57607f821691505b60208210810361227157612270612217565b5b50919050565b60008190508160005260206000209050919050565b60006020601f8301049050919050565b600082821b905092915050565b6000600883026122d97fffffffffffffffffffffffffffffffffffffffffffffffffffffffffffffffff8261229c565b6122e3868361229c565b95508019841693508086168417925050509392505050565b6000819050919050565b600061232061231b612316846117fc565b6122fb565b6117fc565b9050919050565b6000819050919050565b61233a83612305565b61234e61234682612327565b8484546122a9565b825550505050565b600090565b612363612356565b61236e818484612331565b505050565b5b818110156123925761238760008261235b565b600181019050612374565b5050565b601f8211156123d7576123a881612277565b6123b18461228c565b810160208510156123c0578190505b6123d46123cc8561228c565b830182612373565b50505b505050565b600082821c905092915050565b60006123fa600019846008026123dc565b1980831691505092915050565b600061241383836123e9565b9150826002028217905092915050565b61242c82611a8c565b67ffffffffffffffff8111156124455761244461184d565b5b61244f8254612246565b61245a828285612396565b600060209050601f83116001811461248d576000841561247b578287015190505b6124858582612407565b8655506124ed565b601f19841661249b86612277565b60005b828110156124c35784890151825560018201915060208501945060208101905061249e565b868310156124e057848901516124dc601f8916826123e9565b8355505b6001600288020188555050505b505050505050565b600060808201905061250a6000830187612102565b818103602083015261251c8186611de2565b905081810360408301526125308185611de2565b905081810360608301526125448184611de2565b905095945050505050565b7f57617463682049442063616e6e6f7420626520656d7074790000000000000000600082015250565b6000612585601883611dd1565b91506125908261254f565b602082019050919050565b600060208201905081810360008301526125b481612578565b9050919050565b7f496e73756666696369656e742066756e64730000000000000000000000000000600082015250565b60006125f1601283611dd1565b91506125fc826125bb565b602082019050919050565b60006020820190508181036000830152612620816125e4565b9050919050565b7f5761746368206973206e6f7420617661696c61626c6500000000000000000000600082015250565b600061265d601683611dd1565b915061266882612627565b602082019050919050565b6000602082019050818103600083015261268c81612650565b9050919050565b7f4e487b7100000000000000000000000000000000000000000000000000000000600052601160045260246000fd5b60006126cd826117fc565b91506126d8836117fc565b92508282039050818111156126f0576126ef612693565b5b92915050565b7f4e487b7100000000000000000000000000000000000000000000000000000000600052603260045260246000fd5b7f53656c6c65722063616e6e6f7420626520746865206275796572000000000000600082015250565b600061275b601a83611dd1565b915061276682612725565b602082019050919050565b6000602082019050818103600083015261278a8161274e565b9050919050565b6000815461279e81612246565b6127a88186611dd1565b945060018216600081146127c357600181146127d95761280c565b60ff19831686528115156020028601935061280c565b6127e285612277565b60005b83811015612804578154818901526001820191506020810190506127e5565b808801955050505b50505092915050565b61281e81611c6d565b82525050565b61282d81611ea2565b82525050565b600060a0820190506128486000830188612102565b818103602083015261285a8187612791565b90506128696040830186612102565b6128766060830185612815565b6128836080830184612824565b9695505050505050565b6000612898826117fc565b91507fffffffffffffffffffffffffffffffffffffffffffffffffffffffffffffffff82036128ca576128c9612693565b5b600182019050919050565b60006080820190506128ea6000830187612102565b6128f76020830186612815565b81810360408301526129098185611de2565b9050818103606083015261291d8184611de2565b90509594505050505056fea2646970667358221220c1c01211529461229688c6d9d490def3f786149ae2bb1d79f05adae1a8cf9a1f64736f6c63430008130033",
  "immutableReferences": {},
  "source": "// SPDX-License-Identifier: MIT\npragma solidity ^0.8.19;\n\ncontract Watchain {\n    enum WatchStatus {Available, Sold}\n\n    string public companyName;\n    uint watchCount;\n\n    constructor() {\n        watchCount = 0;\n        companyName = \"Watchain\";\n    }\n\n    struct WatchInformation {\n        string serialNumber;\n        string model;\n        string collection;\n        string dateOfManufacture;\n        string authorizedDealer;\n        string watchImage; // added watch image\n        uint price;\n        WatchStatus status;\n    }\n\n    struct OwnershipRecord {\n        address payable ownerId;\n        string ownerName;\n        string transferDate;\n        string contactNumber;\n        string email;\n    }\n\n    struct ServiceHistory {\n        string serviceDate;\n        string details;\n        string replacementParts;\n    }\n\n    struct Watch {\n        WatchInformation watchInfo;\n        OwnershipRecord[] ownershipRecords;\n        ServiceHistory[] serviceHistory;\n    }\n\n    mapping(uint256 => Watch) public watches;\n\n    event WatchRegistered(\n        uint256 watchId,\n        string serialNumber,\n        string model,\n        string collection\n    );\n\n    event OwnershipRecorded(\n        uint256 watchId,\n        address payable ownerId,\n        string ownerName,\n        string transferDate\n    );\n\n    event ServiceRecordAdded(\n        uint256 watchId,\n        string serviceDate,\n        string details,\n        string replacementParts\n    );\n\n    event WatchPurchased(\n        uint256 watchId,\n        string serialNumber,\n        uint price,\n        address payable owner,\n        WatchStatus status\n    );\n\n    function getCompanyName() public view returns (string memory) {\n        return companyName;\n    }\n\n    function getNoOfWatches() public view returns (uint) {\n        return watchCount;\n    }\n\n    function registerWatch(\n        string memory _serialNumber,\n        string memory _model,\n        string memory _collection,\n        string memory _dateOfManufacture,\n        string memory _authorizedDealer,\n        string memory _watchImage,\n        uint _price\n    ) public returns (uint256) {\n        watchCount++;\n        watches[watchCount].watchInfo = WatchInformation(\n            _serialNumber,\n            _model,\n            _collection,\n            _dateOfManufacture,\n            _authorizedDealer,\n            _watchImage,\n            _price,\n            WatchStatus.Available\n        );\n        emit WatchRegistered(watchCount, _serialNumber, _model, _collection);\n        return watchCount;\n    }\n\n    function addOwnershipRecord(\n        uint256 watchId,\n        string memory _ownerName,\n        string memory _transferDate,\n        string memory _contactNumber,\n        string memory _email\n    ) public {\n        watches[watchId].ownershipRecords.push(OwnershipRecord(payable(msg.sender), _ownerName, _transferDate, _contactNumber, _email));\n        emit OwnershipRecorded(watchId, payable(msg.sender), _ownerName, _transferDate);\n    }\n\n    function addServiceRecord(\n        uint256 watchId,\n        string memory _serviceDate,\n        string memory _details,\n        string memory _replacementParts\n    ) public {\n        watches[watchId].serviceHistory.push(ServiceHistory(_serviceDate, _details, _replacementParts));\n        emit ServiceRecordAdded(watchId, _serviceDate, _details, _replacementParts);\n    }\n\n    function getWatchInfo(uint256 watchId) public view returns (WatchInformation memory) {\n        return watches[watchId].watchInfo;\n    }\n\n    function getOwnershipRecords(uint256 watchId) public view returns (OwnershipRecord[] memory) {\n        return watches[watchId].ownershipRecords;\n    }\n\n    function getServiceHistory(uint256 watchId) public view returns (ServiceHistory[] memory) {\n        return watches[watchId].serviceHistory;\n    }\n\n    function purchaseWatch(uint256 watchId) public payable {\n        Watch storage watch = watches[watchId];\n        require(watchId > 0 && bytes(watch.watchInfo.serialNumber).length != 0, \"Watch ID cannot be empty\");\n        require(msg.value >= watch.watchInfo.price, \"Insufficient funds\");\n        require(watch.watchInfo.status == WatchStatus.Available, \"Watch is not available\");\n        \n        uint256 currentOwnerId = watch.ownershipRecords.length;\n        address payable seller = watch.ownershipRecords[currentOwnerId - 1].ownerId;\n        require(seller != msg.sender, \"Seller cannot be the buyer\");\n\n        watch.watchInfo.status = WatchStatus.Sold;\n        payable(seller).transfer(msg.value);\n\n        emit WatchPurchased(watchId, watch.watchInfo.serialNumber, watch.watchInfo.price, payable(msg.sender), WatchStatus.Sold);\n    }\n}\n",
  "sourcePath": "C:\\Users\\23030977\\OneDrive\\Y1 SEM 1\\Y1 SEM 2\\Y2 SEM 2\\WatchainGA\\Watchain-main\\contracts\\Watchain.sol",
  "compiler": {
    "name": "solc",
    "version": "0.8.19+commit.7dd6d404.Emscripten.clang"
  },
  "schemaVersion": "3.4.16",
  "updatedAt": "2025-02-08T13:31:15.796Z",
  "devdoc": {
    "kind": "dev",
    "methods": {},
    "version": 1
  },
  "userdoc": {
    "kind": "user",
    "methods": {},
    "version": 1
  }
}