{
  "contractName": "Watchain",
  "abi": [
    {
      "inputs": [],
      "stateMutability": "nonpayable",
      "type": "constructor"
    },
    {
      "anonymous": false,
      "inputs": [
        {
          "indexed": false,
          "internalType": "uint256",
          "name": "watchId",
          "type": "uint256"
        },
        {
          "indexed": false,
          "internalType": "address",
          "name": "newOwnerId",
          "type": "address"
        },
        {
          "indexed": false,
          "internalType": "string",
          "name": "newOwnerName",
          "type": "string"
        },
        {
          "indexed": false,
          "internalType": "string",
          "name": "transferDate",
          "type": "string"
        }
      ],
      "name": "OwnershipRecorded",
      "type": "event"
    },
    {
      "anonymous": false,
      "inputs": [
        {
          "indexed": false,
          "internalType": "uint256",
          "name": "watchId",
          "type": "uint256"
        },
        {
          "indexed": false,
          "internalType": "string",
          "name": "serviceDate",
          "type": "string"
        },
        {
          "indexed": false,
          "internalType": "string",
          "name": "details",
          "type": "string"
        },
        {
          "indexed": false,
          "internalType": "string",
          "name": "replacementParts",
          "type": "string"
        }
      ],
      "name": "ServiceRecordAdded",
      "type": "event"
    },
    {
      "anonymous": false,
      "inputs": [
        {
          "indexed": false,
          "internalType": "uint256",
          "name": "watchId",
          "type": "uint256"
        },
        {
          "indexed": false,
          "internalType": "string",
          "name": "model",
          "type": "string"
        },
        {
          "indexed": false,
          "internalType": "uint256",
          "name": "price",
          "type": "uint256"
        },
        {
          "indexed": false,
          "internalType": "address payable",
          "name": "owner",
          "type": "address"
        },
        {
          "indexed": false,
          "internalType": "enum Watchain.WatchStatus",
          "name": "status",
          "type": "uint8"
        }
      ],
      "name": "WatchPurchased",
      "type": "event"
    },
    {
      "anonymous": false,
      "inputs": [
        {
          "indexed": false,
          "internalType": "uint256",
          "name": "watchId",
          "type": "uint256"
        },
        {
          "indexed": false,
          "internalType": "string",
          "name": "serialNumber",
          "type": "string"
        },
        {
          "indexed": false,
          "internalType": "string",
          "name": "model",
          "type": "string"
        },
        {
          "indexed": false,
          "internalType": "string",
          "name": "collection",
          "type": "string"
        }
      ],
      "name": "WatchRegistered",
      "type": "event"
    },
    {
      "inputs": [],
      "name": "companyName",
      "outputs": [
        {
          "internalType": "string",
          "name": "",
          "type": "string"
        }
      ],
      "stateMutability": "view",
      "type": "function"
    },
    {
      "inputs": [],
      "name": "watchCount",
      "outputs": [
        {
          "internalType": "uint256",
          "name": "",
          "type": "uint256"
        }
      ],
      "stateMutability": "view",
      "type": "function"
    },
    {
      "inputs": [
        {
          "internalType": "uint256",
          "name": "",
          "type": "uint256"
        }
      ],
      "name": "watches",
      "outputs": [
        {
          "internalType": "string",
          "name": "serialNumber",
          "type": "string"
        },
        {
          "internalType": "string",
          "name": "model",
          "type": "string"
        },
        {
          "internalType": "string",
          "name": "collection",
          "type": "string"
        },
        {
          "internalType": "string",
          "name": "dateOfManufacture",
          "type": "string"
        },
        {
          "internalType": "string",
          "name": "authorizedDealer",
          "type": "string"
        },
        {
          "internalType": "uint256",
          "name": "price",
          "type": "uint256"
        },
        {
          "internalType": "enum Watchain.WatchStatus",
          "name": "status",
          "type": "uint8"
        },
        {
          "components": [
            {
              "internalType": "address payable",
              "name": "ownerId",
              "type": "address"
            },
            {
              "internalType": "string",
              "name": "ownerName",
              "type": "string"
            },
            {
              "internalType": "string",
              "name": "transferDate",
              "type": "string"
            },
            {
              "internalType": "string",
              "name": "contactNumber",
              "type": "string"
            },
            {
              "internalType": "string",
              "name": "email",
              "type": "string"
            }
          ],
          "internalType": "struct Watchain.OwnershipRecord",
          "name": "currentOwner",
          "type": "tuple"
        }
      ],
      "stateMutability": "view",
      "type": "function"
    },
    {
      "inputs": [
        {
          "internalType": "string",
          "name": "_serialNumber",
          "type": "string"
        },
        {
          "internalType": "string",
          "name": "_model",
          "type": "string"
        },
        {
          "internalType": "string",
          "name": "_collection",
          "type": "string"
        },
        {
          "internalType": "string",
          "name": "_dateOfManufacture",
          "type": "string"
        },
        {
          "internalType": "string",
          "name": "_authorizedDealer",
          "type": "string"
        },
        {
          "internalType": "string",
          "name": "_initialOwnerName",
          "type": "string"
        },
        {
          "internalType": "string",
          "name": "_initialOwnerContact",
          "type": "string"
        },
        {
          "internalType": "string",
          "name": "_initialOwnerEmail",
          "type": "string"
        },
        {
          "internalType": "string",
          "name": "_purchaseDate",
          "type": "string"
        },
        {
          "internalType": "uint256",
          "name": "price",
          "type": "uint256"
        }
      ],
      "name": "registerWatch",
      "outputs": [
        {
          "internalType": "uint256",
          "name": "",
          "type": "uint256"
        }
      ],
      "stateMutability": "nonpayable",
      "type": "function"
    },
    {
      "inputs": [
        {
          "internalType": "uint256",
          "name": "watchId",
          "type": "uint256"
        },
        {
          "internalType": "address payable",
          "name": "_newOwnerId",
          "type": "address"
        },
        {
          "internalType": "string",
          "name": "_newOwnerName",
          "type": "string"
        },
        {
          "internalType": "string",
          "name": "_transferDate",
          "type": "string"
        },
        {
          "internalType": "string",
          "name": "_newOwnerContact",
          "type": "string"
        },
        {
          "internalType": "string",
          "name": "_newOwnerEmail",
          "type": "string"
        }
      ],
      "name": "addOwnershipRecord",
      "outputs": [],
      "stateMutability": "nonpayable",
      "type": "function"
    },
    {
      "inputs": [
        {
          "internalType": "uint256",
          "name": "watchId",
          "type": "uint256"
        },
        {
          "internalType": "string",
          "name": "_serviceDate",
          "type": "string"
        },
        {
          "internalType": "string",
          "name": "_details",
          "type": "string"
        },
        {
          "internalType": "string",
          "name": "_replacementParts",
          "type": "string"
        }
      ],
      "name": "addServiceRecord",
      "outputs": [],
      "stateMutability": "nonpayable",
      "type": "function"
    },
    {
      "inputs": [
        {
          "internalType": "uint256",
          "name": "watchId",
          "type": "uint256"
        }
      ],
      "name": "getWatchInfo",
      "outputs": [
        {
          "internalType": "string",
          "name": "serialNumber",
          "type": "string"
        },
        {
          "internalType": "string",
          "name": "model",
          "type": "string"
        },
        {
          "internalType": "string",
          "name": "collection",
          "type": "string"
        },
        {
          "internalType": "string",
          "name": "dateOfManufacture",
          "type": "string"
        },
        {
          "internalType": "string",
          "name": "authorizedDealer",
          "type": "string"
        }
      ],
      "stateMutability": "view",
      "type": "function"
    },
    {
      "inputs": [
        {
          "internalType": "uint256",
          "name": "watchId",
          "type": "uint256"
        }
      ],
      "name": "getCurrentOwner",
      "outputs": [
        {
          "components": [
            {
              "internalType": "address payable",
              "name": "ownerId",
              "type": "address"
            },
            {
              "internalType": "string",
              "name": "ownerName",
              "type": "string"
            },
            {
              "internalType": "string",
              "name": "transferDate",
              "type": "string"
            },
            {
              "internalType": "string",
              "name": "contactNumber",
              "type": "string"
            },
            {
              "internalType": "string",
              "name": "email",
              "type": "string"
            }
          ],
          "internalType": "struct Watchain.OwnershipRecord",
          "name": "",
          "type": "tuple"
        }
      ],
      "stateMutability": "view",
      "type": "function"
    },
    {
      "inputs": [
        {
          "internalType": "uint256",
          "name": "watchId",
          "type": "uint256"
        }
      ],
      "name": "getOwnershipRecords",
      "outputs": [
        {
          "components": [
            {
              "internalType": "address payable",
              "name": "ownerId",
              "type": "address"
            },
            {
              "internalType": "string",
              "name": "ownerName",
              "type": "string"
            },
            {
              "internalType": "string",
              "name": "transferDate",
              "type": "string"
            },
            {
              "internalType": "string",
              "name": "contactNumber",
              "type": "string"
            },
            {
              "internalType": "string",
              "name": "email",
              "type": "string"
            }
          ],
          "internalType": "struct Watchain.OwnershipRecord[]",
          "name": "",
          "type": "tuple[]"
        }
      ],
      "stateMutability": "view",
      "type": "function"
    },
    {
      "inputs": [
        {
          "internalType": "uint256",
          "name": "watchId",
          "type": "uint256"
        }
      ],
      "name": "getServiceHistory",
      "outputs": [
        {
          "components": [
            {
              "internalType": "string",
              "name": "serviceDate",
              "type": "string"
            },
            {
              "internalType": "string",
              "name": "details",
              "type": "string"
            },
            {
              "internalType": "string",
              "name": "replacementParts",
              "type": "string"
            }
          ],
          "internalType": "struct Watchain.ServiceHistory[]",
          "name": "",
          "type": "tuple[]"
        }
      ],
      "stateMutability": "view",
      "type": "function"
    },
    {
      "inputs": [],
      "name": "getNoOfWatches",
      "outputs": [
        {
          "internalType": "uint256",
          "name": "",
          "type": "uint256"
        }
      ],
      "stateMutability": "view",
      "type": "function"
    },
    {
      "inputs": [
        {
          "internalType": "uint256",
          "name": "watchId",
          "type": "uint256"
        }
      ],
      "name": "purchaseWatch",
      "outputs": [],
      "stateMutability": "payable",
      "type": "function"
    }
  ],
  "bytecode": "0x60806040523480156200001157600080fd5b5060006001819055506040518060400160405280600881526020017f576174636861696e00000000000000000000000000000000000000000000000081525060009081620000609190620002e1565b50620003c8565b600081519050919050565b7f4e487b7100000000000000000000000000000000000000000000000000000000600052604160045260246000fd5b7f4e487b7100000000000000000000000000000000000000000000000000000000600052602260045260246000fd5b60006002820490506001821680620000e957607f821691505b602082108103620000ff57620000fe620000a1565b5b50919050565b60008190508160005260206000209050919050565b60006020601f8301049050919050565b600082821b905092915050565b600060088302620001697fffffffffffffffffffffffffffffffffffffffffffffffffffffffffffffffff826200012a565b6200017586836200012a565b95508019841693508086168417925050509392505050565b6000819050919050565b6000819050919050565b6000620001c2620001bc620001b6846200018d565b62000197565b6200018d565b9050919050565b6000819050919050565b620001de83620001a1565b620001f6620001ed82620001c9565b84845462000137565b825550505050565b600090565b6200020d620001fe565b6200021a818484620001d3565b505050565b5b8181101562000242576200023660008262000203565b60018101905062000220565b5050565b601f82111562000291576200025b8162000105565b62000266846200011a565b8101602085101562000276578190505b6200028e62000285856200011a565b8301826200021f565b50505b505050565b600082821c905092915050565b6000620002b66000198460080262000296565b1980831691505092915050565b6000620002d18383620002a3565b9150826002028217905092915050565b620002ec8262000067565b67ffffffffffffffff81111562000308576200030762000072565b5b620003148254620000d0565b6200032182828562000246565b600060209050601f83116001811462000359576000841562000344578287015190505b620003508582620002c3565b865550620003c0565b601f198416620003698662000105565b60005b8281101562000393578489015182556001820191506020850194506020810190506200036c565b86831015620003b35784890151620003af601f891682620002a3565b8355505b6001600288020188555050505b505050505050565b6137da80620003d86000396000f3fe6080604052600436106100a75760003560e01c80637ace341b116100645780637ace341b146101d7578063d035537314610214578063e5deae4e14610258578063ec70835914610281578063f4f45070146102ac578063f5ec2eed146102e9576100a7565b8063086caf63146100ac5780631e7046b5146100d557806325a7b45e146101125780632f632cf11461014f578063587576bc1461017a5780635aba759714610196575b600080fd5b3480156100b857600080fd5b506100d360048036038101906100ce91906124f4565b610314565b005b3480156100e157600080fd5b506100fc60048036038101906100f791906125af565b6103f5565b604051610109919061277b565b60405180910390f35b34801561011e57600080fd5b50610139600480360381019061013491906125af565b610620565b604051610146919061292b565b60405180910390f35b34801561015b57600080fd5b50610164610933565b604051610171919061295c565b60405180910390f35b610194600480360381019061018f91906125af565b610939565b005b3480156101a257600080fd5b506101bd60048036038101906101b891906125af565b610f56565b6040516101ce9594939291906129c1565b60405180910390f35b3480156101e357600080fd5b506101fe60048036038101906101f991906125af565b611259565b60405161020b9190612ac2565b60405180910390f35b34801561022057600080fd5b5061023b600480360381019061023691906125af565b611527565b60405161024f989796959493929190612b5b565b60405180910390f35b34801561026457600080fd5b5061027f600480360381019061027a9190612c2f565b611acc565b005b34801561028d57600080fd5b50610296611ced565b6040516102a3919061295c565b60405180910390f35b3480156102b857600080fd5b506102d360048036038101906102ce9190612d2c565b611cf7565b6040516102e0919061295c565b60405180910390f35b3480156102f557600080fd5b506102fe611fc5565b60405161030b9190612f07565b60405180910390f35b60026000858152602001908152602001600020600d01604051806060016040528085815260200184815260200183815250908060018154018082558091505060019003906000526020600020906003020160009091909190915060008201518160000190816103839190613135565b5060208201518160010190816103999190613135565b5060408201518160020190816103af9190613135565b5050507fd0d29df8b84036496930c1695583c95ddc0708d3860f9e2b869a2a510d0533bc848484846040516103e79493929190613207565b60405180910390a150505050565b606060026000838152602001908152602001600020600d01805480602002602001604051908101604052809291908181526020016000905b82821015610615578382906000526020600020906003020160405180606001604052908160008201805461046090612f58565b80601f016020809104026020016040519081016040528092919081815260200182805461048c90612f58565b80156104d95780601f106104ae576101008083540402835291602001916104d9565b820191906000526020600020905b8154815290600101906020018083116104bc57829003601f168201915b505050505081526020016001820180546104f290612f58565b80601f016020809104026020016040519081016040528092919081815260200182805461051e90612f58565b801561056b5780601f106105405761010080835404028352916020019161056b565b820191906000526020600020905b81548152906001019060200180831161054e57829003601f168201915b5050505050815260200160028201805461058490612f58565b80601f01602080910402602001604051908101604052809291908181526020018280546105b090612f58565b80156105fd5780601f106105d2576101008083540402835291602001916105fd565b820191906000526020600020905b8154815290600101906020018083116105e057829003601f168201915b5050505050815250508152602001906001019061042d565b505050509050919050565b606060026000838152602001908152602001600020600c01805480602002602001604051908101604052809291908181526020016000905b8282101561092857838290600052602060002090600502016040518060a00160405290816000820160009054906101000a900473ffffffffffffffffffffffffffffffffffffffff1673ffffffffffffffffffffffffffffffffffffffff1673ffffffffffffffffffffffffffffffffffffffff1681526020016001820180546106e190612f58565b80601f016020809104026020016040519081016040528092919081815260200182805461070d90612f58565b801561075a5780601f1061072f5761010080835404028352916020019161075a565b820191906000526020600020905b81548152906001019060200180831161073d57829003601f168201915b5050505050815260200160028201805461077390612f58565b80601f016020809104026020016040519081016040528092919081815260200182805461079f90612f58565b80156107ec5780601f106107c1576101008083540402835291602001916107ec565b820191906000526020600020905b8154815290600101906020018083116107cf57829003601f168201915b5050505050815260200160038201805461080590612f58565b80601f016020809104026020016040519081016040528092919081815260200182805461083190612f58565b801561087e5780601f106108535761010080835404028352916020019161087e565b820191906000526020600020905b81548152906001019060200180831161086157829003601f168201915b5050505050815260200160048201805461089790612f58565b80601f01602080910402602001604051908101604052809291908181526020018280546108c390612f58565b80156109105780601f106108e557610100808354040283529160200191610910565b820191906000526020600020905b8154815290600101906020018083116108f357829003601f168201915b50505050508152505081526020019060010190610658565b505050509050919050565b60015481565b60006002600083815260200190815260200160002090506000600182600c01805490506109669190613290565b9050600082600c0182815481106109805761097f6132c4565b5b906000526020600020906005020160000160009054906101000a900473ffffffffffffffffffffffffffffffffffffffff16905060006001541180156109d7575060008360000180546109d290612f58565b905014155b610a16576040517f08c379a0000000000000000000000000000000000000000000000000000000008152600401610a0d9061333f565b60405180910390fd5b8260050154341015610a5d576040517f08c379a0000000000000000000000000000000000000000000000000000000008152600401610a54906133ab565b60405180910390fd5b600180811115610a7057610a6f612ae4565b5b8360060160009054906101000a900460ff166001811115610a9457610a93612ae4565b5b14610ad4576040517f08c379a0000000000000000000000000000000000000000000000000000000008152600401610acb90613417565b60405180910390fd5b3373ffffffffffffffffffffffffffffffffffffffff168173ffffffffffffffffffffffffffffffffffffffff1603610b42576040517f08c379a0000000000000000000000000000000000000000000000000000000008152600401610b39906134a9565b60405180910390fd5b60006040518060a001604052803373ffffffffffffffffffffffffffffffffffffffff1681526020016040518060400160405280600981526020017f4e6577204f776e6572000000000000000000000000000000000000000000000081525081526020016040518060400160405280601081526020017f44617465206f66205472616e7366657200000000000000000000000000000000815250815260200160405180602001604052806000815250815260200160405180602001604052806000815250815250905083600c0181908060018154018082558091505060019003906000526020600020906005020160009091909190915060008201518160000160006101000a81548173ffffffffffffffffffffffffffffffffffffffff021916908373ffffffffffffffffffffffffffffffffffffffff1602179055506020820151816001019081610c959190613135565b506040820151816002019081610cab9190613135565b506060820151816003019081610cc19190613135565b506080820151816004019081610cd79190613135565b50505060008460060160006101000a81548160ff02191690836001811115610d0257610d01612ae4565b5b02179055508173ffffffffffffffffffffffffffffffffffffffff166108fc349081150290604051600060405180830381858888f19350505050158015610d4d573d6000803e3d6000fd5b50836002600087815260200190815260200160002060008201816000019081610d7691906134df565b5060018201816001019081610d8b91906134df565b5060028201816002019081610da091906134df565b5060038201816003019081610db591906134df565b5060048201816004019081610dca91906134df565b50600582015481600501556006820160009054906101000a900460ff168160060160006101000a81548160ff02191690836001811115610e0d57610e0c612ae4565b5b021790555060078201816007016000820160009054906101000a900473ffffffffffffffffffffffffffffffffffffffff168160000160006101000a81548173ffffffffffffffffffffffffffffffffffffffff021916908373ffffffffffffffffffffffffffffffffffffffff16021790555060018201816001019081610e9591906134df565b5060028201816002019081610eaa91906134df565b5060038201816003019081610ebf91906134df565b5060048201816004019081610ed491906134df565b505050600c820181600c01908054610eed929190612053565b50600d820181600d01908054610f04929190612166565b509050507f71e6603c3a62c2989fcce529d0cba49c9d763cb0558e142fe2c20c89a7f0394485856001018660050154336000604051610f4795949392919061365a565b60405180910390a15050505050565b606080606080606060006002600088815260200190815260200160002090508060000181600101826002018360030184600401848054610f9590612f58565b80601f0160208091040260200160405190810160405280929190818152602001828054610fc190612f58565b801561100e5780601f10610fe35761010080835404028352916020019161100e565b820191906000526020600020905b815481529060010190602001808311610ff157829003601f168201915b5050505050945083805461102190612f58565b80601f016020809104026020016040519081016040528092919081815260200182805461104d90612f58565b801561109a5780601f1061106f5761010080835404028352916020019161109a565b820191906000526020600020905b81548152906001019060200180831161107d57829003601f168201915b505050505093508280546110ad90612f58565b80601f01602080910402602001604051908101604052809291908181526020018280546110d990612f58565b80156111265780601f106110fb57610100808354040283529160200191611126565b820191906000526020600020905b81548152906001019060200180831161110957829003601f168201915b5050505050925081805461113990612f58565b80601f016020809104026020016040519081016040528092919081815260200182805461116590612f58565b80156111b25780601f10611187576101008083540402835291602001916111b2565b820191906000526020600020905b81548152906001019060200180831161119557829003601f168201915b505050505091508080546111c590612f58565b80601f01602080910402602001604051908101604052809291908181526020018280546111f190612f58565b801561123e5780601f106112135761010080835404028352916020019161123e565b820191906000526020600020905b81548152906001019060200180831161122157829003601f168201915b50505050509050955095509550955095505091939590929450565b6112616121fd565b600260008381526020019081526020016000206007016040518060a00160405290816000820160009054906101000a900473ffffffffffffffffffffffffffffffffffffffff1673ffffffffffffffffffffffffffffffffffffffff1673ffffffffffffffffffffffffffffffffffffffff1681526020016001820180546112e890612f58565b80601f016020809104026020016040519081016040528092919081815260200182805461131490612f58565b80156113615780601f1061133657610100808354040283529160200191611361565b820191906000526020600020905b81548152906001019060200180831161134457829003601f168201915b5050505050815260200160028201805461137a90612f58565b80601f01602080910402602001604051908101604052809291908181526020018280546113a690612f58565b80156113f35780601f106113c8576101008083540402835291602001916113f3565b820191906000526020600020905b8154815290600101906020018083116113d657829003601f168201915b5050505050815260200160038201805461140c90612f58565b80601f016020809104026020016040519081016040528092919081815260200182805461143890612f58565b80156114855780601f1061145a57610100808354040283529160200191611485565b820191906000526020600020905b81548152906001019060200180831161146857829003601f168201915b5050505050815260200160048201805461149e90612f58565b80601f01602080910402602001604051908101604052809291908181526020018280546114ca90612f58565b80156115175780601f106114ec57610100808354040283529160200191611517565b820191906000526020600020905b8154815290600101906020018083116114fa57829003601f168201915b5050505050815250509050919050565b600260205280600052604060002060009150905080600001805461154a90612f58565b80601f016020809104026020016040519081016040528092919081815260200182805461157690612f58565b80156115c35780601f10611598576101008083540402835291602001916115c3565b820191906000526020600020905b8154815290600101906020018083116115a657829003601f168201915b5050505050908060010180546115d890612f58565b80601f016020809104026020016040519081016040528092919081815260200182805461160490612f58565b80156116515780601f1061162657610100808354040283529160200191611651565b820191906000526020600020905b81548152906001019060200180831161163457829003601f168201915b50505050509080600201805461166690612f58565b80601f016020809104026020016040519081016040528092919081815260200182805461169290612f58565b80156116df5780601f106116b4576101008083540402835291602001916116df565b820191906000526020600020905b8154815290600101906020018083116116c257829003601f168201915b5050505050908060030180546116f490612f58565b80601f016020809104026020016040519081016040528092919081815260200182805461172090612f58565b801561176d5780601f106117425761010080835404028352916020019161176d565b820191906000526020600020905b81548152906001019060200180831161175057829003601f168201915b50505050509080600401805461178290612f58565b80601f01602080910402602001604051908101604052809291908181526020018280546117ae90612f58565b80156117fb5780601f106117d0576101008083540402835291602001916117fb565b820191906000526020600020905b8154815290600101906020018083116117de57829003601f168201915b5050505050908060050154908060060160009054906101000a900460ff1690806007016040518060a00160405290816000820160009054906101000a900473ffffffffffffffffffffffffffffffffffffffff1673ffffffffffffffffffffffffffffffffffffffff1673ffffffffffffffffffffffffffffffffffffffff16815260200160018201805461188f90612f58565b80601f01602080910402602001604051908101604052809291908181526020018280546118bb90612f58565b80156119085780601f106118dd57610100808354040283529160200191611908565b820191906000526020600020905b8154815290600101906020018083116118eb57829003601f168201915b5050505050815260200160028201805461192190612f58565b80601f016020809104026020016040519081016040528092919081815260200182805461194d90612f58565b801561199a5780601f1061196f5761010080835404028352916020019161199a565b820191906000526020600020905b81548152906001019060200180831161197d57829003601f168201915b505050505081526020016003820180546119b390612f58565b80601f01602080910402602001604051908101604052809291908181526020018280546119df90612f58565b8015611a2c5780601f10611a0157610100808354040283529160200191611a2c565b820191906000526020600020905b815481529060010190602001808311611a0f57829003601f168201915b50505050508152602001600482018054611a4590612f58565b80601f0160208091040260200160405190810160405280929190818152602001828054611a7190612f58565b8015611abe5780601f10611a9357610100808354040283529160200191611abe565b820191906000526020600020905b815481529060010190602001808311611aa157829003601f168201915b505050505081525050905088565b60006040518060a001604052808773ffffffffffffffffffffffffffffffffffffffff168152602001868152602001858152602001848152602001838152509050806002600089815260200190815260200160002060070160008201518160000160006101000a81548173ffffffffffffffffffffffffffffffffffffffff021916908373ffffffffffffffffffffffffffffffffffffffff1602179055506020820151816001019081611b809190613135565b506040820151816002019081611b969190613135565b506060820151816003019081611bac9190613135565b506080820151816004019081611bc29190613135565b5090505060026000888152602001908152602001600020600c0181908060018154018082558091505060019003906000526020600020906005020160009091909190915060008201518160000160006101000a81548173ffffffffffffffffffffffffffffffffffffffff021916908373ffffffffffffffffffffffffffffffffffffffff1602179055506020820151816001019081611c629190613135565b506040820151816002019081611c789190613135565b506060820151816003019081611c8e9190613135565b506080820151816004019081611ca49190613135565b5050507f553aa985ddabac220fd59325937c7e0a40d085fa5a166198920b6529174c8eed87878787604051611cdc9493929190613709565b60405180910390a150505050505050565b6000600154905090565b600060016000815480929190611d0c9061375c565b9190505550600060026000600154815260200190815260200160002090508b816000019081611d3b9190613135565b508a816001019081611d4d9190613135565b5089816002019081611d5f9190613135565b5088816003019081611d719190613135565b5087816004019081611d839190613135565b5060018160060160006101000a81548160ff02191690836001811115611dac57611dab612ae4565b5b021790555082816005018190555060006040518060a001604052803373ffffffffffffffffffffffffffffffffffffffff168152602001898152602001868152602001888152602001878152509050808260070160008201518160000160006101000a81548173ffffffffffffffffffffffffffffffffffffffff021916908373ffffffffffffffffffffffffffffffffffffffff1602179055506020820151816001019081611e5c9190613135565b506040820151816002019081611e729190613135565b506060820151816003019081611e889190613135565b506080820151816004019081611e9e9190613135565b5090505081600c0181908060018154018082558091505060019003906000526020600020906005020160009091909190915060008201518160000160006101000a81548173ffffffffffffffffffffffffffffffffffffffff021916908373ffffffffffffffffffffffffffffffffffffffff1602179055506020820151816001019081611f2c9190613135565b506040820151816002019081611f429190613135565b506060820151816003019081611f589190613135565b506080820151816004019081611f6e9190613135565b5050507fea822aa7d32f361b3e7a7daaae8accb139eb9fcd34e128f5dc889e9ebe2904876001548e8e8e604051611fa89493929190613207565b60405180910390a1600154925050509a9950505050505050505050565b60008054611fd290612f58565b80601f0160208091040260200160405190810160405280929190818152602001828054611ffe90612f58565b801561204b5780601f106120205761010080835404028352916020019161204b565b820191906000526020600020905b81548152906001019060200180831161202e57829003601f168201915b505050505081565b8280548282559060005260206000209060050281019282156121555760005260206000209160050282015b828111156121545782826000820160009054906101000a900473ffffffffffffffffffffffffffffffffffffffff168160000160006101000a81548173ffffffffffffffffffffffffffffffffffffffff021916908373ffffffffffffffffffffffffffffffffffffffff1602179055506001820181600101908161210391906134df565b506002820181600201908161211891906134df565b506003820181600301908161212d91906134df565b506004820181600401908161214291906134df565b5050509160050191906005019061207e565b5b5090506121629190612242565b5090565b8280548282559060005260206000209060030281019282156121ec5760005260206000209160030282015b828111156121eb578282600082018160000190816121af91906134df565b50600182018160010190816121c491906134df565b50600282018160020190816121d991906134df565b50505091600301919060030190612191565b5b5090506121f991906122c0565b5090565b6040518060a00160405280600073ffffffffffffffffffffffffffffffffffffffff168152602001606081526020016060815260200160608152602001606081525090565b5b808211156122bc57600080820160006101000a81549073ffffffffffffffffffffffffffffffffffffffff02191690556001820160006122839190612307565b6002820160006122939190612307565b6003820160006122a39190612307565b6004820160006122b39190612307565b50600501612243565b5090565b5b8082111561230357600080820160006122da9190612307565b6001820160006122ea9190612307565b6002820160006122fa9190612307565b506003016122c1565b5090565b50805461231390612f58565b6000825580601f106123255750612344565b601f0160209004906000526020600020908101906123439190612347565b5b50565b5b80821115612360576000816000905550600101612348565b5090565b6000604051905090565b600080fd5b600080fd5b6000819050919050565b61238b81612378565b811461239657600080fd5b50565b6000813590506123a881612382565b92915050565b600080fd5b600080fd5b6000601f19601f8301169050919050565b7f4e487b7100000000000000000000000000000000000000000000000000000000600052604160045260246000fd5b612401826123b8565b810181811067ffffffffffffffff821117156124205761241f6123c9565b5b80604052505050565b6000612433612364565b905061243f82826123f8565b919050565b600067ffffffffffffffff82111561245f5761245e6123c9565b5b612468826123b8565b9050602081019050919050565b82818337600083830152505050565b600061249761249284612444565b612429565b9050828152602081018484840111156124b3576124b26123b3565b5b6124be848285612475565b509392505050565b600082601f8301126124db576124da6123ae565b5b81356124eb848260208601612484565b91505092915050565b6000806000806080858703121561250e5761250d61236e565b5b600061251c87828801612399565b945050602085013567ffffffffffffffff81111561253d5761253c612373565b5b612549878288016124c6565b935050604085013567ffffffffffffffff81111561256a57612569612373565b5b612576878288016124c6565b925050606085013567ffffffffffffffff81111561259757612596612373565b5b6125a3878288016124c6565b91505092959194509250565b6000602082840312156125c5576125c461236e565b5b60006125d384828501612399565b91505092915050565b600081519050919050565b600082825260208201905092915050565b6000819050602082019050919050565b600081519050919050565b600082825260208201905092915050565b60005b83811015612642578082015181840152602081019050612627565b60008484015250505050565b600061265982612608565b6126638185612613565b9350612673818560208601612624565b61267c816123b8565b840191505092915050565b600060608301600083015184820360008601526126a4828261264e565b915050602083015184820360208601526126be828261264e565b915050604083015184820360408601526126d8828261264e565b9150508091505092915050565b60006126f18383612687565b905092915050565b6000602082019050919050565b6000612711826125dc565b61271b81856125e7565b93508360208202850161272d856125f8565b8060005b85811015612769578484038952815161274a85826126e5565b9450612755836126f9565b925060208a01995050600181019050612731565b50829750879550505050505092915050565b600060208201905081810360008301526127958184612706565b905092915050565b600081519050919050565b600082825260208201905092915050565b6000819050602082019050919050565b600073ffffffffffffffffffffffffffffffffffffffff82169050919050565b60006127f4826127c9565b9050919050565b612804816127e9565b82525050565b600060a08301600083015161282260008601826127fb565b506020830151848203602086015261283a828261264e565b91505060408301518482036040860152612854828261264e565b9150506060830151848203606086015261286e828261264e565b91505060808301518482036080860152612888828261264e565b9150508091505092915050565b60006128a1838361280a565b905092915050565b6000602082019050919050565b60006128c18261279d565b6128cb81856127a8565b9350836020820285016128dd856127b9565b8060005b8581101561291957848403895281516128fa8582612895565b9450612905836128a9565b925060208a019950506001810190506128e1565b50829750879550505050505092915050565b6000602082019050818103600083015261294581846128b6565b905092915050565b61295681612378565b82525050565b6000602082019050612971600083018461294d565b92915050565b600082825260208201905092915050565b600061299382612608565b61299d8185612977565b93506129ad818560208601612624565b6129b6816123b8565b840191505092915050565b600060a08201905081810360008301526129db8188612988565b905081810360208301526129ef8187612988565b90508181036040830152612a038186612988565b90508181036060830152612a178185612988565b90508181036080830152612a2b8184612988565b90509695505050505050565b600060a083016000830151612a4f60008601826127fb565b5060208301518482036020860152612a67828261264e565b91505060408301518482036040860152612a81828261264e565b91505060608301518482036060860152612a9b828261264e565b91505060808301518482036080860152612ab5828261264e565b9150508091505092915050565b60006020820190508181036000830152612adc8184612a37565b905092915050565b7f4e487b7100000000000000000000000000000000000000000000000000000000600052602160045260246000fd5b60028110612b2457612b23612ae4565b5b50565b6000819050612b3582612b13565b919050565b6000612b4582612b27565b9050919050565b612b5581612b3a565b82525050565b6000610100820190508181036000830152612b76818b612988565b90508181036020830152612b8a818a612988565b90508181036040830152612b9e8189612988565b90508181036060830152612bb28188612988565b90508181036080830152612bc68187612988565b9050612bd560a083018661294d565b612be260c0830185612b4c565b81810360e0830152612bf48184612a37565b90509998505050505050505050565b612c0c816127e9565b8114612c1757600080fd5b50565b600081359050612c2981612c03565b92915050565b60008060008060008060c08789031215612c4c57612c4b61236e565b5b6000612c5a89828a01612399565b9650506020612c6b89828a01612c1a565b955050604087013567ffffffffffffffff811115612c8c57612c8b612373565b5b612c9889828a016124c6565b945050606087013567ffffffffffffffff811115612cb957612cb8612373565b5b612cc589828a016124c6565b935050608087013567ffffffffffffffff811115612ce657612ce5612373565b5b612cf289828a016124c6565b92505060a087013567ffffffffffffffff811115612d1357612d12612373565b5b612d1f89828a016124c6565b9150509295509295509295565b6000806000806000806000806000806101408b8d031215612d5057612d4f61236e565b5b60008b013567ffffffffffffffff811115612d6e57612d6d612373565b5b612d7a8d828e016124c6565b9a505060208b013567ffffffffffffffff811115612d9b57612d9a612373565b5b612da78d828e016124c6565b99505060408b013567ffffffffffffffff811115612dc857612dc7612373565b5b612dd48d828e016124c6565b98505060608b013567ffffffffffffffff811115612df557612df4612373565b5b612e018d828e016124c6565b97505060808b013567ffffffffffffffff811115612e2257612e21612373565b5b612e2e8d828e016124c6565b96505060a08b013567ffffffffffffffff811115612e4f57612e4e612373565b5b612e5b8d828e016124c6565b95505060c08b013567ffffffffffffffff811115612e7c57612e7b612373565b5b612e888d828e016124c6565b94505060e08b013567ffffffffffffffff811115612ea957612ea8612373565b5b612eb58d828e016124c6565b9350506101008b013567ffffffffffffffff811115612ed757612ed6612373565b5b612ee38d828e016124c6565b925050610120612ef58d828e01612399565b9150509295989b9194979a5092959850565b60006020820190508181036000830152612f218184612988565b905092915050565b7f4e487b7100000000000000000000000000000000000000000000000000000000600052602260045260246000fd5b60006002820490506001821680612f7057607f821691505b602082108103612f8357612f82612f29565b5b50919050565b60008190508160005260206000209050919050565b60006020601f8301049050919050565b600082821b905092915050565b600060088302612feb7fffffffffffffffffffffffffffffffffffffffffffffffffffffffffffffffff82612fae565b612ff58683612fae565b95508019841693508086168417925050509392505050565b6000819050919050565b600061303261302d61302884612378565b61300d565b612378565b9050919050565b6000819050919050565b61304c83613017565b61306061305882613039565b848454612fbb565b825550505050565b600090565b613075613068565b613080818484613043565b505050565b5b818110156130a45761309960008261306d565b600181019050613086565b5050565b601f8211156130e9576130ba81612f89565b6130c384612f9e565b810160208510156130d2578190505b6130e66130de85612f9e565b830182613085565b50505b505050565b600082821c905092915050565b600061310c600019846008026130ee565b1980831691505092915050565b600061312583836130fb565b9150826002028217905092915050565b61313e82612608565b67ffffffffffffffff811115613157576131566123c9565b5b6131618254612f58565b61316c8282856130a8565b600060209050601f83116001811461319f576000841561318d578287015190505b6131978582613119565b8655506131ff565b601f1984166131ad86612f89565b60005b828110156131d5578489015182556001820191506020850194506020810190506131b0565b868310156131f257848901516131ee601f8916826130fb565b8355505b6001600288020188555050505b505050505050565b600060808201905061321c600083018761294d565b818103602083015261322e8186612988565b905081810360408301526132428185612988565b905081810360608301526132568184612988565b905095945050505050565b7f4e487b7100000000000000000000000000000000000000000000000000000000600052601160045260246000fd5b600061329b82612378565b91506132a683612378565b92508282039050818111156132be576132bd613261565b5b92915050565b7f4e487b7100000000000000000000000000000000000000000000000000000000600052603260045260246000fd5b7f496e76616c696420776174636820494400000000000000000000000000000000600082015250565b6000613329601083612977565b9150613334826132f3565b602082019050919050565b600060208201905081810360008301526133588161331c565b9050919050565b7f496e73756666696369656e742066756e64730000000000000000000000000000600082015250565b6000613395601283612977565b91506133a08261335f565b602082019050919050565b600060208201905081810360008301526133c481613388565b9050919050565b7f576174636820697320616c726561647920736f6c640000000000000000000000600082015250565b6000613401601583612977565b915061340c826133cb565b602082019050919050565b60006020820190508181036000830152613430816133f4565b9050919050565b7f596f752063616e6e6f7420707572636861736520796f7572206f776e2077617460008201527f6368000000000000000000000000000000000000000000000000000000000000602082015250565b6000613493602283612977565b915061349e82613437565b604082019050919050565b600060208201905081810360008301526134c281613486565b9050919050565b6000815490506134d881612f58565b9050919050565b8181036134ed5750506135c5565b6134f6826134c9565b67ffffffffffffffff81111561350f5761350e6123c9565b5b6135198254612f58565b6135248282856130a8565b6000601f8311600181146135535760008415613541578287015490505b61354b8582613119565b8655506135be565b601f19841661356187612f89565b965061356c86612f89565b60005b828110156135945784890154825560018201915060018501945060208101905061356f565b868310156135b157848901546135ad601f8916826130fb565b8355505b6001600288020188555050505b5050505050505b565b600081546135d481612f58565b6135de8186612977565b945060018216600081146135f9576001811461360f57613642565b60ff198316865281151560200286019350613642565b61361885612f89565b60005b8381101561363a5781548189015260018201915060208101905061361b565b808801955050505b50505092915050565b613654816127e9565b82525050565b600060a08201905061366f600083018861294d565b818103602083015261368181876135c7565b9050613690604083018661294d565b61369d606083018561364b565b6136aa6080830184612b4c565b9695505050505050565b60006136cf6136ca6136c5846127c9565b61300d565b6127c9565b9050919050565b60006136e1826136b4565b9050919050565b60006136f3826136d6565b9050919050565b613703816136e8565b82525050565b600060808201905061371e600083018761294d565b61372b60208301866136fa565b818103604083015261373d8185612988565b905081810360608301526137518184612988565b905095945050505050565b600061376782612378565b91507fffffffffffffffffffffffffffffffffffffffffffffffffffffffffffffffff820361379957613798613261565b5b60018201905091905056fea2646970667358221220d74ffd8559c7d89d67e19e98cb51b55e185db71fbd050b3b461b6ae4dd136d2264736f6c63430008130033",
  "immutableReferences": {},
  "source": "// SPDX-License-Identifier: MIT\npragma solidity ^0.8.19;\n\ncontract Watchain {\n    enum WatchStatus {Sold, Available}\n\n    string public companyName;\n    uint public watchCount; // Corrected from petCount to watchCount\n\n    constructor() {\n        watchCount = 0;\n        companyName = \"Watchain\";\n    }\n\n    // Struct for watch details and watch history\n    struct Watch {\n        string serialNumber;\n        string model;\n        string collection;\n        string dateOfManufacture;\n        string authorizedDealer;\n        uint price;\n        WatchStatus status;\n\n        OwnershipRecord currentOwner; // Current owner's details\n        OwnershipRecord[] ownershipRecords;\n        ServiceHistory[] serviceHistory;\n    }\n\n    // Struct for ownership and transfer records\n    struct OwnershipRecord {\n        address payable ownerId; // Changed to address payable for actual transactions\n        string ownerName;\n        string transferDate;\n        string contactNumber;\n        string email;\n    }\n\n    // Struct for service and maintenance history\n    struct ServiceHistory {\n        string serviceDate;\n        string details;\n        string replacementParts;\n    }\n\n    mapping(uint256 => Watch) public watches;\n\n    event WatchRegistered(\n        uint256 watchId, \n        string serialNumber, \n        string model, \n        string collection\n    );\n\n    // Register a new watch\n    function registerWatch(\n        string memory _serialNumber,\n        string memory _model,\n        string memory _collection,\n        string memory _dateOfManufacture,\n        string memory _authorizedDealer,\n        \n        string memory _initialOwnerName,\n        string memory _initialOwnerContact,\n        string memory _initialOwnerEmail,\n        string memory _purchaseDate,\n        uint price\n    ) public returns (uint256) {\n        watchCount++;\n\n        // Create a new watch and initialize its arrays\n        Watch storage newWatch = watches[watchCount];\n        newWatch.serialNumber = _serialNumber;\n        newWatch.model = _model;\n        newWatch.collection = _collection;\n        newWatch.dateOfManufacture = _dateOfManufacture;\n        newWatch.authorizedDealer = _authorizedDealer;\n        newWatch.status = WatchStatus.Available;\n        newWatch.price = price;\n\n        // Set the initial owner as the current owner\n        OwnershipRecord memory initialOwner = OwnershipRecord(\n            payable(msg.sender),  // Set the owner to the sender's address\n            _initialOwnerName,\n            _purchaseDate,\n            _initialOwnerContact,\n            _initialOwnerEmail\n        );\n        newWatch.currentOwner = initialOwner;\n\n        // Add the initial owner to ownership records\n        newWatch.ownershipRecords.push(initialOwner);\n        emit WatchRegistered(watchCount, _serialNumber, _model, _collection);\n\n        return watchCount;\n    }\n\n    event OwnershipRecorded(\n        uint256 watchId, \n        address newOwnerId, \n        string newOwnerName, \n        string transferDate\n    );\n\n    // Add ownership transfer record --> appending and updating current owner\n    function addOwnershipRecord(\n        uint256 watchId,\n        address payable _newOwnerId,\n        string memory _newOwnerName, \n        string memory _transferDate,\n        string memory _newOwnerContact,\n        string memory _newOwnerEmail\n    ) public {\n        // Create a new ownership record\n        OwnershipRecord memory newOwner = OwnershipRecord(\n            _newOwnerId,\n            _newOwnerName,\n            _transferDate,\n            _newOwnerContact,\n            _newOwnerEmail\n        );\n\n        // Update the current owner \n        watches[watchId].currentOwner = newOwner;\n\n        // Add the new ownership record to the watch's ownershipRecords array\n        watches[watchId].ownershipRecords.push(newOwner);\n        emit OwnershipRecorded(watchId, _newOwnerId, _newOwnerName, _transferDate);\n    }\n\n    event ServiceRecordAdded(\n        uint256 watchId, \n        string serviceDate, \n        string details,\n        string replacementParts\n    );\n\n    // Add service history record\n    function addServiceRecord(\n        uint256 watchId,\n        string memory _serviceDate,\n        string memory _details,\n        string memory _replacementParts\n    ) public {\n        watches[watchId].serviceHistory.push(\n            ServiceHistory(\n                _serviceDate,\n                _details,\n                _replacementParts\n            )\n        );\n        emit ServiceRecordAdded(watchId, _serviceDate, _details, _replacementParts);\n    }\n    \n    // Retrieve watch information\n    function getWatchInfo(uint256 watchId) public view returns (\n        string memory serialNumber,\n        string memory model,\n        string memory collection,\n        string memory dateOfManufacture,\n        string memory authorizedDealer\n    ) {\n        Watch storage watch = watches[watchId];\n        return (\n            watch.serialNumber,\n            watch.model,\n            watch.collection,\n            watch.dateOfManufacture,\n            watch.authorizedDealer\n        );\n    }\n\n    // Retrieve current owner\n    function getCurrentOwner(uint256 watchId) public view returns (OwnershipRecord memory) {\n        return watches[watchId].currentOwner;\n    }\n\n    // Retrieve ownership records\n    function getOwnershipRecords(uint256 watchId) public view returns (OwnershipRecord[] memory) {\n        return watches[watchId].ownershipRecords;\n    }\n\n    // Retrieve service history\n    function getServiceHistory(uint256 watchId) public view returns (ServiceHistory[] memory) {\n        return watches[watchId].serviceHistory;\n    }\n\n    // Retrieve total number of watches\n    function getNoOfWatches() public view returns (uint) {\n        return watchCount;\n    }\n\n    event WatchPurchased(\n        uint256 watchId, \n        string model,\n        uint price,\n        address payable owner,\n        WatchStatus status\n    );\n\n    // Function to purchase a watch with the watch ID\n    function purchaseWatch(uint256 watchId) public payable {\n        // Fetch the product\n        Watch storage watchData = watches[watchId];\n        uint256 currentOwnerIndex = watchData.ownershipRecords.length - 1;  // Get the last ownership index\n        address payable seller = watchData.ownershipRecords[currentOwnerIndex].ownerId;\n\n        // Make sure the watch has a valid id and is available\n        require(watchCount > 0 && bytes(watchData.serialNumber).length != 0, \"Invalid watch ID\");\n        require(msg.value >= watchData.price, \"Insufficient funds\");\n        require(watchData.status == WatchStatus.Available, \"Watch is already sold\");\n        require(seller != msg.sender, \"You cannot purchase your own watch\");\n\n        // Transfer ownership to the buyer\n        OwnershipRecord memory newOwner = OwnershipRecord(\n            payable(msg.sender),\n            \"New Owner\",  // Can replace with buyer's info\n            \"Date of Transfer\",  // Replace with the current date\n            \"\",  // Add buyer's contact info\n            \"\"   // Add buyer's email\n        );\n        watchData.ownershipRecords.push(newOwner);\n\n        // Mark the watch as sold\n        watchData.status = WatchStatus.Sold;\n\n        // Pay the seller by sending them Ether\n        seller.transfer(msg.value);\n\n        // Update the watch info in the mapping\n        watches[watchId] = watchData;\n\n        // Trigger an event\n        emit WatchPurchased(watchId, watchData.model, watchData.price, payable(msg.sender), WatchStatus.Sold);\n    }\n}\n",
  "sourcePath": "C:\\Users\\23030977\\OneDrive\\Y1 SEM 1\\Y1 SEM 2\\Y2 SEM 2\\Watchain-main\\contracts\\Watchain.sol",
  "compiler": {
    "name": "solc",
    "version": "0.8.19+commit.7dd6d404.Emscripten.clang"
  },
  "schemaVersion": "3.4.16",
  "updatedAt": "2025-02-07T10:56:20.252Z",
  "devdoc": {
    "kind": "dev",
    "methods": {},
    "version": 1
  },
  "userdoc": {
    "kind": "user",
    "methods": {},
    "version": 1
  }
}